:06000000021FF30223C001
:10000B00022183900025E0FE700690001CE0FF2289
:10001B00EE14FF900003E02FF52025E0242CF58251
:10002B00E43426F583E493FC740193FDAE0478026B
:10003B00CEC313CE13D8F9FF900019EEF0A3EFF057
:10004B00EDAE047802C333CE33CED8F9FF7C007DFE
:10005B000A121E1F900000EEF0A3EFF0900000E0DC
:10006B00FEA3E07803CEC313CE13D8F9FF90001F85
:10007B00EEF0A3EFF0E52025E024B4F582E43400A4
:10008B00F583E0F523A3E0F52454079000B0F0E5E9
:10009B0024AE237803CEC313CE13D8F9F5248E23C5
:1000AB0054079000ABF0E5247803CEC313CE13D8DE
:1000BB00F9F5248E2354019000FFF0E523C313F5CB
:1000CB0023E52413F524540FA3F0E523C4F854F0CF
:1000DB00C868F523E524C4540F48F524540F900049
:1000EB00FDF0900018E07003020B6690001BE070AF
:1000FB0003020B66E52075F008A42429F582E4348D
:10010B0000F583C083C0829000FAE0D082D0837563
:10011B00F002121EC1E0F523A3E0F5249000B1E03C
:10012B00607CE52025E02402F582E43401F583E0D0
:10013B00FEA3E0FFC39524EE95235025C3E5249F32
:10014B00FFE5239EFED390001AE09F900019E09EDE
:10015B00500F900006E004F0E0C39403400302024A
:10016B0007E52025E02402F582E43401F583E0FE67
:10017B00A3E0FFD39524EE95234023EF9524FFEEC8
:10018B009523FED390001AE09F900019E09E500E2D
:10019B00900007E004F0E0C394034002805E9000FF
:1001AB00B2E06072E52025E02402F582E43401F52B
:1001BB0083E0FEA3E0FFD39524EE9523404BEF9510
:1001CB0024FFEE9523FEE52025E0242CF582E43474
:1001DB0026F583D37401939FE4939E502C740825CA
:1001EB0020F582E43400F583E004F074082520F553
:1001FB0082E43400F583E0C39464401AE490002554
:10020B00F09000AA04F07FFF2274082520F582E409
:10021B003400F583E4F0E52025E02402F582E43494
:10022B0001F583E0FEA3E0FF900000E0FCA3E0FDFE
:10023B00EF2DFFEE3CFEE52025E0242CF582E43487
:10024B0026F5837401932FFFE4933EFED3E5249FA1
:10025B00E5239E40028045E52025E02402F582E45B
:10026B003401F583E0FEA3E0FF900000E0FCA3E087
:10027B00FDC3EF9DFFEE9CFEE52025E0242CF582CF
:10028B00E43426F583E493FC740193FDC3EF9DFFE7
:10029B00EE9CFEC3E5249FE5239E50048E238F2402
:1002AB00E52075F008A42429F582E43400F583C019
:1002BB0083C0829000FAE0D082D08375F002121EC8
:1002CB00C1E523F0A3E524F0E4F528F527F526F5A1
:1002DB0025F521E52075F008A42429F582E43400E6
:1002EB00F58375F002E521121EC1E0FEA3E0FFE4E9
:1002FB00FCFDE5282FF528E5273EF527ED3526F5FE
:10030B0026EC3525F5250521E521B404C6AF28AE2D
:10031B0027AD26AC257802121E9B8F288E278D26A3
:10032B008C25900023EEF0A3EFF0E52025E02422AE
:10033B00F582E43401F583E0FCA3E0FD900019E0C5
:10034B00FAA3E0FBC3ED9BFDEC9ACD24ECCD34FF7F
:10035B00FCC3EF9DEE9C503DE52025E02422F58269
:10036B00E43401F583E0FEA3E024F6FFEE34FF90C6
:10037B000023F0A3EFF0900003E0FF900144E0B501
:10038B00070DB40804E4F080069001447408F09063
:10039B0000E77401F0E52025E02422F582E4340126
:1003AB00F583E0FEA3E0FF2BFDEE3ACD2414CD3414
:1003BB0000FCD3900024E09D900023E09C4029EFAB
:1003CB00240AFFE43EF0A3EFF0900003E0FF90015E
:1003DB0044E0B5070DB40804E4F0800690014474C2
:1003EB0008F09000E77401F09000FAE0F522E520A8
:1003FB0075F008A42429F582E43400F58375F00226
:10040B00E522121EC1E0FEA3E0FFE48F288E27F544
:10041B0026F5251522E522D394034003752203E527
:10042B002075F008A42429F582E43400F58375F0D7
:10043B0002E522121EC1E0FEA3E0FFE4FCFD780101
:10044B00121EAE8F2C8E2B8D2A8C291522E522D3D2
:10045B0094034003752203E52075F008A42429F5C5
:10046B0082E43400F58375F002E522121EC1E0FE32
:10047B00A3E0FFE4FCFDE5282FF528E5273EF52753
:10048B00ED3526F526EC3525F525AF2CAE2BAD2A13
:10049B00AC29AB28AA27A926F8D3121E8A401AE545
:1004AB0028952CF528E527952BF527E526952AF594
:1004BB0026E5259529F5258019C3E52C9528F528E2
:1004CB00E52B9527F527E52A9526F526E52995258C
:1004DB00F525E52025E0242CF582E43426F583E48C
:1004EB0093FE740193FFE4FCFDAB28AA27A926A871
:1004FB0025D3121E8A401F900003E0FF900144E0B9
:10050B00B5070DB40804E4F080069001447408F0BC
:10051B009000E77401F0900001E024F6FF900000DA
:10052B00E034FFFE90001FE0FCA3E0FDC3EF9DFF56
:10053B00EE9CFEEF7803CEC313CE13D8F9FFE52064
:10054B0025E02422F582E43401F583E0FCA3E02FBF
:10055B00FFEC3EFE900023E0FCA3E0FDC39FEC9E6E
:10056B00500A9000B0E0601A14F080169000B0E0D2
:10057B0004F0900005E004FF9000B0E0D39F400230
:10058B00EFF0E52025E02402F582E43401F583E069
:10059B00FEA3E0FFD3ED9FEC9E5003020843E490D3
:1005AB000100F0900023E0FCA3E0FD9FF524EC9EFE
:1005BB00F523C3900001E09524900000E0952340C3
:1005CB00030206FCE49000FDF0900004E0C39418D5
:1005DB0040030206F4A3E0F99000ABE0C39940039B
:1005EB000206EC9000FBE064017043E52025E0245B
:1005FB0022F582E43401F583E0FEA3E0FF240AFB3D
:10060B00E43EFAD3ED9BEC9A401D900019E0FCA35D
:10061B00E0FDEF2DFFEE3CFEC3900024E09F900029
:10062B0023E09E50028007E49000ABF08006900020
:10063B00ABE004F0E914FF9000ABE0D39F50030252
:10064B0006DC9000B0E0940240030206DA9000ABA7
:10065B00EFF0E4900004F074D62520F582E434002A
:10066B00F583E0C394804059E52025E02422F582F0
:10067B00E43401F583E0FEA3E0FF24F6FDEE34FF46
:10068B00FC900023E0FAA3E0FBD39DEA9C4042EFF1
:10069B00240AFFE43EFEC3EB9FEA9E503490001FFA
:1006AB00E0FEA3E0FFC3EB9FFFEA9EFEE52025E003
:1006BB002402F582E43401F583EEF0A3EFF0020A95
:1006CB004F74D62520F582E43400F583020835807B
:1006DB000074D62520F582E43400F583E4F0020A99
:1006EB004F9000ABE9F0020A4FE49000ABF0020A26
:1006FB004FE49000ABF074D62520F582E43400F57E
:10070B0083E004F0E52025E02422F582E43401F5B2
:10071B0083E0FEA3E0FF240CFDE43EFCD390002419
:10072B00E09D900023E09C4005E49000FDF074D622
:10073B002520F582E43400F583E0C39420500302B6
:10074B000A4F900004E0F97048EF24F6FFEE34FFF7
:10075B00FE900023E0FCA3E0FDD39FEC9E4032E52E
:10076B002025E02422F582E43401F583E0FEA3E0AA
:10077B00240AFFE43EFEC3ED9FEC9E5014E52025BA
:10078B00E02402F582E43401F583E475F001121ED6
:10079B007474D62520F582E43400F583E4F09000E0
:1007AB0000E0FEA3E07802CEC313CE13D8F9FFD33B
:1007BB00E5249FE5239E4078900005E02401FFE4AB
:1007CB0033FE9000FDE06F7001EE705BE97061E548
:1007DB002025E02422F582E43401F583E0FEA3E03A
:1007EB00FF24F6FDEE34FFFC900023E0FAA3E0FBC0
:1007FB00D39DEA9C403AEF240AFFE43EFEC3EB9FF5
:10080B00EA9E502C90001FE0FEA3E0FFC3EB9FFF7E
:10081B00EA9EFEE52025E02402F582E43401F5830F
:10082B00EEF0A3EFF080099000FDE004F0020A4F18
:10083B00E49000FDF0020A4FE49000ABF09000FD55
:10084B00F0E52025E02402F582E43401F583E0FE97
:10085B00A3E0FF900000E0FCA3E0FDC3EF9DFFEEE3
:10086B009CFE900023E0FCA3E0FDC39FEC9E4003A5
:10087B000209B0900005E02401FFE433FE90010073
:10088B00E0C39FEE6480F87480984003020963E52F
:10089B002025E02422F582E43401F583E0FEA3E079
:1008AB0024F6FFEE34FFFEC3ED9FEC9E503CE5209B
:1008BB0025E02422F582E43401F583E0FEA3E0FF7A
:1008CB00900019E0FCA3E0FDC3EF9DFFEE9CCF244D
:1008DB00ECCF34FFFED3900024E09F900023E09EEA
:1008EB004008900100E004F08077E4900100F09064
:1008FB000004E0706CE52025E02422F582E434014D
:10090B00F583E0FEA3E0FF24F6FDEE34FFFC900040
:10091B0023E0FAA3E0FBD39DEA9C4045EF240AFFBA
:10092B00E43EFEC3EB9FEA9E5037E52025E0240210
:10093B00F582E43401F583C083C082E0FEA3E0FFBF
:10094B0090001FE0FCA3E0FDC3EF9DFFEE9CD08267
:10095B00D083F0A3EFF08009900005E00490010034
:10096B00F0900005E0FF900100E0D39F5003020AD6
:10097B004F900004E0702690001FE0FEA3E0FF9074
:10098B000024E09FFF900023E09EFEE52025E0245D
:10099B0002F582E43401F583EEF0A3EFF0E490016D
:1009AB0000F0020A4FE4900100F074D62520F58286
:1009BB00E43400F583E004F074D62520F582E434AA
:1009CB0000F583E0FF64016006EFC394204075904F
:1009DB000004E07061E52025E02422F582E4340177
:1009EB00F583E0FEA3E0FF24F6FDEE34FFFC900060
:1009FB0023E0FAA3E0FBD39DEA9C403AEF240AFFE5
:100A0B00E43EFEC3EB9FEA9E502CE52025E024023A
:100A1B00F582E43401F583C083C082E0FEA3E0FFDE
:100A2B0090001FE0FCA3E0FDC3EF9DFFEE9CD08286
:100A3B00D083F0A3EFF074D62520F582E43400F5D3
:100A4B00837401F0900023E0FEA3E0FFE52025E096
:100A5B002422F582E43401F583EEF0A3EFF090004D
:100A6B0005E014FF9000ABE0FED39F40089000FF21
:100A7B007401F08007EE70049000FFF09000B3E07B
:100A8B007003020B66E52025E0244CF582E4342646
:100A9B00F583E493FE740193FFE52025E02402F532
:100AAB0082E43401F583E0FCA3E02FFFEC3EFEE58E
:100ABB002025E02446F582E43401F583E0FCA3E035
:100ACB00D39FEC9E5003020B5974E82520F582E46A
:100ADB003400F583E0C394FF500E74E82520F582B3
:100AEB00E43400F583E004F0E520C39408501F7450
:100AFB00017E00A820088005C333CE33CED8F9FF82
:100B0B00900026E05EFEA3E05F4E60378022E5207A
:100B1B0024F8FF74017E00A807088005C333CE3389
:100B2B00CED8F9FF900026E05EFEA3E05F4E601387
:100B3B00E49000ABF09000FFF09000B0F090000458
:100B4B007430F074D62520F582E43400800974E803
:100B5B002520F582E43400F583E4F09000FDE07588
:100B6B002300F524E524C4F8540FC868F524E523C5
:100B7B00C454F048F523900100E02524F524E43516
:100B8B0023F523E52425E0F524E52333F523900015
:100B9B00FFE02524F524E43523F523E524AE237863
:100BAB0003C333CE33CED8F9F5248E239000ABE0BC
:100BBB002524F524E43523F523E524AE237803C35C
:100BCB0033CE33CED8F9F5248E239000B0E0252414
:100BDB00F524E43523F523E52025E024B4F582E460
:100BEB003400F583E523F0A3E524F0900025E01411
:100BFB00F0E06003020ED7900018E0600990001B34
:100C0B00E06003020D86900003E064086003020CB1
:100C1B00D19000E6E004F0E0C394085003020E8F7D
:100C2B009000187401F0E49000E6F0F52290001D9E
:100C3B00E0FFE522C39F4003020E8F900003E025E7
:100C4B0022F520E4F528F527F526F525F521E520F5
:100C5B0075F008A42429F582E43400F58375F002BD
:100C6B00E521121EC1E0FEA3E0FFE4FCFDE5282F09
:100C7B00F528E5273EF527ED3526F526EC3525F548
:100C8B00250521E521B404C6AF28AE27AD26AC253A
:100C9B007802121E9B8F288E278D268C25E520250A
:100CAB00E02402F582E43401F583EEF0A3EFF0E5E6
:100CBB002025E02422F582E43401F583EEF0A3EF46
:100CCB00F00522020C389000F8E004F0E0C3940821
:100CDB005003020E8F90001B7401F0E49000F8F0AB
:100CEB00F52290001DE0FFE522C39F4003020E8F0B
:100CFB00900003E02522F520E4F528F527F526F5ED
:100D0B0025F521E52075F008A42429F582E43400AB
:100D1B00F58375F002E521121EC1E0FEA3E0FFE4AE
:100D2B00FCFDE5282FF528E5273EF527ED3526F5C3
:100D3B0026EC3525F5250521E521B404C6AF28AEF3
:100D4B0027AD26AC257802121E9B8F288E278D2669
:100D5B008C25E52025E02402F582E43401F583EEB1
:100D6B00F0A3EFF0E52025E02422F582E43401F531
:100D7B0083EEF0A3EFF00522020CED900003E0FFF1
:100D8B00900144E06F704B9000ADF0A3F0F522F5AD
:100D9B002375240190001DE0FFE522C39F50339083
:100DAB000003E02522F52025E024B4F582E434008D
:100DBB00F583A3E030E60C9000ADE04523F0A3E013
:100DCB004524F00522E5242524F524E52333F523DA
:100DDB0080C29000B3E07003020E8FE4900021F00C
:100DEB00F522F52375240190001DE0FFE522C39F3A
:100DFB004003020E7D74E82522F582E43400F5836E
:100E0B00E0FF900005E0FEEFC39E402474F0252226
:100E1B00F582E43400F583E0C39E40149000217406
:100E2B0001F0900026E04523F0A3E04524F080324A
:100E3B00900026E0FEA3E0FFE5235EFCE5245F4C7B
:100E4B006020E524F4FDE523F4FCEE5CFEEF5DFF92
:100E5B00900026EEF0A3EFF09000ADE05CF0A3E085
:100E6B005DF00522E5242524F524E52333F5230243
:100E7B000DF2900026E0FEA3E0FF9000ADE04EF0F7
:100E8B00A3E04FF09000FAE004F0E0D394034002AB
:100E9B00E4F0900004E0600214F09000E7E06006DC
:100EAB009000047430F0900003E09000FAB4080F47
:100EBB00E09000D4F0900004E0900143F0800DE04E
:100ECB009000D5F0900004E0900145F090001CE0FC
:100EDB00F520E4F0AF2022E511640460030212CD8B
:100EEB000509E53A640145397020F539F53A050DE8
:100EFB00751801E50DD394074003750D017B647ADA
:100F0B00007D647C007F011224E8E50D14B407001A
:100F1B0040030212CD900F2E75F003A4C58325F06C
:100F2B00C58373020F43020F760210090210AB0246
:100F3B00114C0211EE0212A9E5186016E4F509F541
:100F4B00187D01FC7F011225157B187D187F171268
:100F5B00252AE509C394FA50030212CDE4F5097D65
:100F6B0001FC7F0212251575110522E5186019E4A5
:100F7B00F509F5187D02FC7F011225157514057B0B
:100F8B0005E4FD7F0A12252AE509C394FA400EE415
:100F9B00F5097D02FC7F02122515751105E53A64F2
:100FAB000245397022F539F53AF509F51375190132
:100FBB007B64FA7D64FC7F011224E80514E514D3ED
:100FCB00940A4003751401E51970030212CD051341
:100FDB00E513D394324003E4F513E513C39419508E
:100FEB0014E51475F00A84FDE51475F00A84ABF072
:100FFB007F0A0212A67B197D197F190212A6E5182A
:10100B006019E4F509F5187D04FC7F0112251575AF
:10101B00145AE4FB7D037F0B12252AE509C394FACE
:10102B00400EE4F5097D04FC7F02122515751105B0
:10103B00E53A640245397024F539F53AF509F513AB
:10104B007519017B64FA7D64FC7F011224E8740539
:10105B002514F514D39496400375143CE5197003CD
:10106B000212CD0513E513D394324003E4F513E5D7
:10107B0013C394195021E51475F03C84240AFFE541
:10108B001475F03C84AEF0EE75F00A84FDEE75F04D
:10109B000A84ABF00212A67B197D197F190212A6E6
:1010AB00E5186018E4F509F5187D08FC7F01122599
:1010BB001575143CE4FBFD7F0B12252AE509C3943F
:1010CB00FA400EE4F5097D08FC7F02122515751117
:1010DB0005E53A640245397024F539F53AF509F519
:1010EB00137519017B64FA7D64FC7F011224E8748B
:1010FB00052514F514D39478400375141EE5197067
:10110B00030212CD0513E513D394324003E4F51318
:10111B00E513C394195021E51475F03C84240AFFA0
:10112B00E51475F03C84AEF0EE75F00A84FDEE75B7
:10113B00F00A84ABF00212A67B197D197F190212FB
:10114B00A6E5186019E4F509F5187D10FC7F01126E
:10115B00251575145AE4FB7D037F0B12252AE5092F
:10116B00C394FA400EE4F5097D10FC7F021225159D
:10117B00751105E53A640245397024F539F53AF5F0
:10118B0009F5137519017B64FA7D64FC7F01122448
:10119B00E874052514F514D39478400375141EE5F3
:1011AB001970030212CD0513E513D394324003E4F7
:1011BB00F513E513C394195021E51475F03C842401
:1011CB000AFFE51475F03C84AEF0EE75F00A84FD71
:1011DB00EE75F00A84ABF00212A67B197D197F190C
:1011EB000212A6E5186019E4F509F5187D20FC7FBD
:1011FB00011225157514377B147D0F7F0512252AD7
:10120B00E509C394FA400EE4F5097D20FC7F021238
:10121B002515751105E53E6402453D7046E53FB465
:10122B000821E4F509F5137519017B64FA7D64FC5B
:10123B007F011224E874052514F514D3945A400346
:10124B00751428E53FD394304019753F23E4F50915
:10125B00F51375190174052514F514D3945A40032D
:10126B00751428E519605B0513E513D3943240031D
:10127B00E4F513E513C39419501BE51475F00A84B8
:10128B0075F00A84AFF0E51475F00A84E5F0240AD2
:10129B00FD7B1480067B197D197F1902252AE51821
:1012AB006013E4F509F518FDFCFF122515E4FBFDB1
:1012BB007F0A12252AE509C394FA4006E4F509755D
:1012CB0011012253A8FEE4F59DF5C2F5C3F5C4F553
:1012DB00C5F5C6F5CFF5B6F5CEF5A1F5C190002550
:1012EB00E060069001427403F0E4900025F090005A
:1012FB00AAE06008121B8FE49000AAF09000F9E0BE
:10130B00640360030213E49000FCE0FF900003F021
:10131B00BF080D9000D4E09000FAF0900143800BD1
:10132B009000D5E09000FAF0900145E0900004F0B9
:10133B00900004E0D3940040089000FB7401F0800F
:10134B0005E49000FBF0E49000E7F0F52190001D20
:10135B00E0FFE521C39F5070900003E02521F520AD
:10136B007D007C05E52190261493FF7E002DFDEE7C
:10137B003CFCEF2DFDEE3CFC8D82F583A3E0FE8D56
:10138B00828C83E07C002400FDEC3EFCE52025E014
:10139B002446F582E43401F583ECF0A3EDF0E5206F
:1013AB0075F008A42429F582E43400F583C083C0CA
:1013BB00829000FAE0D082D08375F002121EC1EC4D
:1013CB00F0A3EDF00521808590001DE0900025F045
:1013DB00E4900006F0A3F0800D9000F9E0B4010654
:1013EB009001427402F0900166E0900028F09000AA
:1013FB00AFF0900022E0FF7017900166E004F090D0
:10140B00001DE0FE900166E0C39E4011E4F0800DEC
:10141B00900166E004F0E0C39F4002E4F0900028E6
:10142B00E090001EF090261493B40800505D9014C9
:10143B0040F828287302145802146002146802142E
:10144B0070021478021480021488021490439D01D8
:10145B0043C2018036439D0243C202802E439D044A
:10146B0043C2048026439D0843C208801E439D103F
:10147B0043C2108016439D2043C220800E439D40E3
:10148B0043C2408006439D8043C280900028E00405
:10149B00F0900022E0FF701190001DE0FE900028FC
:1014AB00E0C39E402CE4F08028900028E0FED39F00
:1014BB00500D900022E0FFEEC39F4015E4800E908C
:1014CB00001DE0FFEEC39F4008900022E090002833
:1014DB00F053B67F53A1FC43A10853A1EF9000FC3E
:1014EB00E0B4081AE4F0900101E0F5CF90001EE0A3
:1014FB0090262493F5C6E4F5C59000AC801C9000B3
:10150B00FC7408F09000FEE0F5CF90001EE09026F2
:10151B001C93F5C6E4F5C59000A9E0F5CE53A1FBED
:10152B0053B6DF43A180E4F520000520E520B4325B
:10153B00F89000F97401F043A801E4F5C143A12030
:10154B00900142E0600490001CF0E4900142F02214
:10155B00C0A7C086E4F586F5A753A8FEAFC1AEB70A
:10156B00F59DF5C253A8FE9000F9E06401600302FB
:10157B0016E7EF20E4030216DCEE60030216DC90A4
:10158B0000AFE0FF900028E0FE6F703C900022E07F
:10159B00FF70028005EEC39F40089000F97403F0C2
:1015AB008026900002E0900028F09000AFF09000B1
:1015BB000204F090001DE0FF900002E0C39F400882
:1015CB00900022E0900002F09000F9E064037003B9
:1015DB000216E7900028E090001EF090261493B4BA
:1015EB000800505D9015F6F828287302160E0216A7
:1015FB001602161E02162602162E02163602163E6C
:10160B00021646439D0143C2018036439D0243C2ED
:10161B0002802E439D0443C2048026439D0843C28F
:10162B0008801E439D1043C2108016439D2043C269
:10163B0020800E439D4043C2408006439D8043C2A1
:10164B0080900028E004F0900022E0FF70119000E1
:10165B001DE0FE900028E0C39E402CE4F080289013
:10166B000028E0FED39F500D900022E0FFEEC39FB9
:10167B004015E4800E90001DE0FFEEC39F400890E4
:10168B000022E0900028F09000FCE0B408189000D5
:10169B00FEE0F5CF90001EE090261C93F5C6E4F516
:1016AB00C59000A98016900101E0F5CF90001EE0D7
:1016BB0090262493F5C6E4F5C59000ACE0F5CEE496
:1016CB00FF000FBF32FB43A801E4F5C143A120800B
:1016DB000B9001427401F0E49000F9F0D086D0A792
:1016EB00220512E512C394324003E4F512E535648A
:1016FB0001700302186AC3E5589450E557940040F3
:10170B001BE51A604CE51560067E007F6480047E45
:10171B00027FC5C3E5589FE5579E5035050CE50C78
:10172B00D39419500302186AE4F50C751A0175115C
:10173B0003E512941950087B01E4FD7F1580067BAD
:10174B00197D197F1912252AE508700302186A8082
:10175B0065E511B40515C3E5589464E5579400503D
:10176B000AE5589450E55794005019E515604CD391
:10177B00E5589450E55794004041E55894C5E5571A
:10178B0094025037050CE50CD39419500302186AD8
:10179B00E4F50C751501751103E51294195007E466
:1017AB00FBFD7F1580067B197D197F1912252AE514
:1017BB0008700302186AE4F5088061D3E558947D3C
:1017CB00E557940F5018E51B606EE55894CAE55722
:1017DB00940D4064E558947DE557940F505A050CD1
:1017EB00E50CD394194078E4F50C751B01751103C6
:1017FB00E51294195007E4FBFD7F0A800DE512C337
:10180B00941940097B197D197F1912252AE5086067
:10181B004EE4F508FBFD7F0A12252AE4FDFCFF12BE
:10182B0025157B2C7A017D2C7C017F031224E8E4A7
:10183B00F523FBFDFF022500E511B40322D3E55888
:10184B0094C5E55794024017E55894CAE557940D93
:10185B00500DE4F51BF51AF51575080175110122EC
:10186B001225210561E561C394044003E4F561E5AC
:10187B00616401705BEF90266C93FEC330E001D383
:10188B009280EEC330E101D392A4EF90266C93FECD
:10189B00C330E201D392A1EEC330E301D39290EFB8
:1018AB0090266C93FEC330E401D39283EEC330E5F4
:1018BB0001D392A3EF90266C93FEC330E601D39233
:1018CB00A2EEC330E701D39291C2B4D281D282226D
:1018DB00E5616402705BED90266C93FFC330E00111
:1018EB00D39280EFC330E101D392A4ED90266C9399
:1018FB00FFC330E201D392A1EFC330E301D3929047
:10190B00ED90266C93FFC330E401D39283EFC33089
:10191B00E501D392A3ED90266C93FFC330E601D380
:10192B0092A2EFC330E701D39291D2B4C281D2829B
:10193B0022E5616403705AEB90266C93FFC330E091
:10194B0001D39280EFC330E101D392A4EB90266CCC
:10195B0093FFC330E201D392A1EFC330E301D392E3
:10196B0090EB90266C93FFC330E401D39283EFC3CB
:10197B0030E501D392A3EB90266C93FFC330E601C5
:10198B00D392A2EFC330E701D39291D2B4D281C2EA
:10199B00822290001D7403F0E4900022F090000569
:1019AB007402F09000FE7407F0E5CE543F4440F50E
:1019BB00CE9000A9F0E5CE54CF4430F5CE53CEF304
:1019CB00E5CE54FC4403F5CE900101740EF0E5CE48
:1019DB00543F44C0F5CE9000ACF0E5CE54CF44302C
:1019EB00F5CE53CEF3E5CE54FC4403F5CEE4900094
:1019FB00B1F09000B204F09000B3F0E4F5B2000047
:101A0B000000FF90001DE0FEEFC39E5062EF90269A
:101A1B001493B408005055901A29F8282873021A09
:101A2B0041021A48021A4F021A56021A5D021A6430
:101A3B00021A6B021A72C29743E280802FC2A04334
:101A4B00E3018028C2A143E3028021C2A243E30445
:101A5B00801AC2A343E3088013C2A443E310800C93
:101A6B00C2A543E3208005C2A643E3400F8094C286
:101A7B00A743E38053908743E27853B0DF43E420DE
:101A8B004386405390F043910F5386BF022531019B
:101A9B0064000163000162000135000231000002A5
:101AAB00330000013700013600022D0000022F0029
:101ABB0000016100015E00015F0001600001400058
:101ACB00023D0000013F00013800023B00000239DB
:101ADB0000000257000001560002540000025200A1
:101AEB0000024500000149000247000001420001CD
:101AFB004100014400014300025C0000015B000255
:101B0B00590000011600010A00010B00011101012F
:101B1B001A00011B00011500010801011800011931
:101B2B0000011200011300010C00010D000109005E
:101B3B00011000011700011400020E0000604201A9
:101B4B0067000A00000000000B00010001000C0000
:101B5B00020002000D00030003000E00040004004D
:101B6B000F0005000500100006000600110007001D
:101B7B0007001200080008001300090009001600F6
:101B8B0000000000E49000ADF0A3F0900026F0A35D
:101B9B00F09000F9F0900025F0900018F090001BE9
:101BAB00F09000E6F09000F8F09000D4F090014334
:101BBB00F09000D5F0900145F09000FAF090000401
:101BCB00F09000E7F09000FBF0A37408F090000396
:101BDB00F0900144F0E4FF90001DE0FEEFC39E5037
:101BEB0072AE07EF2408FDE433FCEED39DEC64806A
:101BFB00F8748098505AEE25E02402F582E4340103
:101C0B00F583E4F0A3F0EE25E02422F582E4340121
:101C1B00F583E4F0A3F0EE25E024B4F582E4340080
:101C2B00F583E4F0A3F074D62EF582E43400F5834B
:101C3B00E4F074082EF582E43400F583E4F074E8E4
:101C4B002EF582E43400F583E4F074082EFE8093C5
:101C5B000F8084E4900142F090001CF0900166F03C
:101C6B00900022E0900002F022E511640370030261
:101C7B001D4A050BE50BC394C75035E53E64034580
:101C8B003D7030E53F644E702A7511027B64FA7D1E
:101C9B0064FC7F021224E875230AE4FB7D067F04B3
:101CAB00122500E4FBFD7F0A12252A75160180031D
:101CBB00750BC8E5167003021D4A0517E517D3947B
:101CCB0031407CE4F5170510E510940B5038E51006
:101CDB0075F006A42467F582E43401F583A3E0FFD5
:101CEB00E51075F006A42469F582E43401F583A3AD
:101CFB00E0FDE51075F006A4246BF582E43401F5E4
:101D0B0083A3E0FB802EE510640B702BAE54AF5514
:101D1B00FC7D0A121E1F7C007D0A121E1FAF05C020
:101D2B0007AE54AF557C007D0A121E1FED240AFD31
:101D3B00D0077B1402252AE4F510751101F5162244
:101D4B001223FB12249412199D7B2C7A017DE87CC3
:101D5B00037F011224E87D7F7C007F021225157B17
:101D6B001A7D1A7F1A12252A75B102E563C3940FE7
:101D7B0040F6E4F5630562E562940A4003E4F5621C
:101D8B001224CFE535640160071222BA8E578F58A3
:101D9B00E56214B4080050D0901DB175F003A4C5D2
:101DAB008325F0C58373021DC9021DDD021DE902E7
:101DBB001E01021E07021E0D021E13021E19E4F560
:101DCB0093F591AB30AA2FAD2EAC2DAF3612207FF1
:101DDB008096AF4EAE4D1224B41222FF808AAF58BC
:101DEB00AE571221FAAF58AE57121F668E548F554D
:101DFB00122382021D73122342021D73121C7402E2
:101E0B001D731216EC021D73120EE2021D731224C7
:101E1B0032021D73BC000BBE0029EF8DF084FFADA9
:101E2B00F022E4CCF875F008EF2FFFEE33FEEC3325
:101E3B00FCEE9DEC984005FCEE9DFE0FD5F0E9E421
:101E4B00CEFD22EDF8F5F0EE8420D21CFEADF07540
:101E5B00F008EF2FFFED33FD4007985006D5F0F259
:101E6B0022C398FD0FD5F0EA22C5F0F8A3E028F0C5
:101E7B00C5F0F8E582158270021583E038F022EB8D
:101E8B009FF5F0EA9E42F0E99D42F0E89C45F02276
:101E9B00E8600FECC313FCED13FDEE13FEEF13FF25
:101EAB00D8F122E8600FEFC333FFEE33FEED33FDC5
:101EBB00EC33FCD8F122A42582F582E5F03583F5CD
:101ECB008322AC07A903EC2DFDE51F75F002A4FFDF
:101EDB00AEF0C3E5499FEE6480F87480984004E44B
:101EEB00F54922C3E5499FEE6480F8748098506AE7
:101EFB000546E54670020545ED75F008A424FFFF85
:101F0B00E5F034FFFEC3E5469FE5459E4007E4F54B
:101F1B0045F5460549EC75F008A424FFFFE5F034C0
:101F2B00FFFEC3E5469FE5459E5017E925E0FFE51B
:101F3B001F25E0C39FFFE549C39F5003D2B622C2C2
:101F4B00B622ED75F008A424FFFFE5F034FFFEC3C5
:101F5B00E5469FE5459E5002C2B6228E208F21E4B6
:101F6B00FDFC90253893F522740193F523902612EE
:101F7B00E493FA740193FBD39521EA952040048AEC
:101F8B00208B21D39025A67401939521E493952062
:101F9B0040047F378002E4FFD3E5219523E52095AC
:101FAB00225018EF25E02438F582E43425F583E43C
:101FBB0093F522740193F5230F80DDEFD3946540E5
:101FCB00067C007D64800FEF7004FCFD8008EF241D
:101FDB00FFFDE434FFFCD3ED9464EC940040047CEF
:101FEB00007D64AE04AF0522787FE4F6D8FD7581E1
:101FFB006402203A021D4BE493A3F8E493A340033D
:10200B00F68001F208DFF48029E493A3F854072447
:10201B000CC8C333C4540F4420C8834004F4568007
:10202B000146F6DFE4800B0102040810204080908B
:10203B001A9AE47E019360BCA3FF543F30E5095428
:10204B001FFEE493A360010ECF54C025E060A840AF
:10205B00B8E493A3FAE493A3F8E493A3C8C582C8A6
:10206B00CAC583CAF0A3C8C582C8CAC583CADFE97B
:10207B00DEE780BE8F208D828C83E5357009E537D6
:10208B00C3952050028070E5356401703343E4083A
:10209B000534E53470020533AE02AF037C007D14CA
:1020AB00121E1FEF24FFFFEE34FFFEC3E5349FE546
:1020BB00339E404AE4F533F53475350253E4F72289
:1020CB00E535640270380532E53270020531AE83B6
:1020DB00AF827C007D14121E1FEF24FFFFEE34FF36
:1020EB00FEC3E5329FE5319E4014E4F531F5320530
:1020FB0037E5379520500475350122E4F53522D2AA
:10210B0092D2B4D281D282EDC330E001D392A3ED4F
:10211B00C330E101D392A2EDC330E201D39291ED32
:10212B00C330E301D39280EDC330E401D392A1ED30
:10213B00C330E501D39290EF7003D29222BF0132EC
:10214B00055DE55D7002055CC394A0E55C940F40F2
:10215B0005E4F55CF55DD3E55D94D0E55C94075043
:10216B0003C29222D3E55D94D0E55C94074008D27C
:10217B009222BF0202C29222C0E0C0F0C083C08292
:10218B00C0D075D000C000C001C002C003C004C0E5
:10219B0005C006C007758AE3758BF7C28D0563E52D
:1021AB0035B40102B2B385431FAB44AD41AF42120C
:1021BB001ECDE5647F0070027F018F64E564700BB8
:1021CB00AD5AAC59AF5B12210A8009AB60AD5FAF62
:1021DB005E12186BD007D006D005D004D003D00206
:1021EB00D001D000D0D0D082D083D0F0D0E032E478
:1021FB00F9FDFCFBFAF582F5837008AC06AD07AA76
:10220B0006AB07D3EF9DEE9C4006AC06AD07800BEB
:10221B00C3EF9BEE9A5004AA06AB07EF2582F5821B
:10222B00EE3583F58309E9C3940A4022E4F9E5828C
:10223B009DFFE5839CCFC39BCF9AFEEF7803CEC364
:10224B0013CE13D8F9F5588E57E4F583F582221285
:10225B0024648E4D8F4EE551701CF54FF550054C97
:10226B00E54C7002054BC394B4E54B9400403BE442
:10227B00F54BF54C8021E54E454D6025E4F54BF5CE
:10228B004C0550E5507002054FC39410E54F940E6A
:10229B004018E4F54FF550122531E4F54DF54E801D
:1022AB0009E4F54FF550F54BF54CAE4DAF4E227F93
:1022BB0064E4FDFC53E4F7F5937594EFF595759194
:1022CB0088759397E59330E00CAE071FEE60060020
:1022DB0075B10280EFAF977C00AD07EDC4F8540FDA
:1022EB00C868FDECC454F048FCAF96EF2DFDE43C00
:1022FB00FEAF0522E53E453D600FE53C453B7009D1
:10230B00F53F853D3B853E3C22E53EB53C0FE53D2B
:10231B00B53B0AE53FC394FE501C053F22E53E4505
:10232B003D7013F53FE53C453B600B853B39853CE8
:10233B003AE4F53BF53C22E51164017039E50AD32B
:10234B0094315003050A22750A32E4FBFD7F0A1211
:10235B00252AE4FDFCFF122515E4FBFAFDFCFF1218
:10236B0024E8E4F523FBFDFF122500E53A64014563
:10237B0039700375110422EFB55309EEB55205E41C
:10238B00F556802CC3EF9553EE9552400E53560FD6
:10239B000556E556D3940A4017800E5356F0741029
:1023AB002556F556D394A04007E4F5568E548F5519
:1023BB008E528F5322C0E0C0F0C083C082C0D07554
:1023CB00D000C000C001C002C003C004C005C006DD
:1023DB00C00712155BD007D006D005D004D003D0B0
:1023EB0002D001D000D0D0D082D083D0F0D0E03258
:1023FB00E4F586C2AFF5B275B10275E1FFF5E9F50B
:10240B0080D281D28275E2FFF5EAF590D29275D92E
:10241B000575EF0275E39FF5EBF5A075E4FFF5ECA1
:10242B00F5B0D2B4D2AF22E5116405702BAE54AF28
:10243B0055FC7D0A121E1F7C007D0A121E1FAF0564
:10244B00C007AE54AF557C007D0A121E1FED240A47
:10245B00FDD0077B1412252A227551019000ADE0A7
:10246B00FEA3E0FFEE701AEF24FB501424F560106E
:10247B0024F0600C24E0600824C060042478700110
:10248B0022E4F5517EFF7FFF22438901758F04758E
:10249B008AE3758BF7C28DD28CD2A9D2AF75B802F5
:1024AB0075B402E4F5B9F5B522E4F53DF53EEF3030
:1024BB00E003433E01EF30E103433E02EF30E20322
:1024CB00433E0422054AE54AC394064009E4F54A13
:1024DB0012225A0212CE12000E12000E22E4F5370F
:1024EB00F535F533F534F531F5328F368A2F8B30E0
:1024FB008C2D8D2E22E4F545F546F549F547F5482B
:10250B008F428D418B4485234322E4F55CF55D8F2F
:10251B005B8C598D5A22D292D2B4D281D282228F25
:10252B005E8D5F8B60229000AA7401F0220E930ED9
:10253B00820E700E5D0E4A0E360E220E0D0DF70D2D
:10254B00E10DCA0DB20D9A0D810D670D4D0D320DBA
:10255B00160CFA0CDD0CBF0CA10C820C630C430C9B
:10256B00220C010BDF0BBD0B9A0B770B540B300BB3
:10257B000B0AE60AC10A9C0A760A500A2A0A0309C0
:10258B00DC09B6098F09680941091908F208CB085B
:10259B00A4087D08560830080907E307BD0797070D
:1025AB0071074C0727070206DE06BA069606730666
:1025BB0050062E060C05EB05CA05A90589056A050B
:1025CB004B052C050E04F104D404B8049C048004C0
:1025DB0065044B0431041803FF03E703CF03B8036F
:1025EB00A1038A0375035F034A03360322030F0219
:1025FB00FC02E902D702C502B402A30293028202D3
:10260B007302630255024602380001060000000007
:10261B000003030303030303030303030303030382
:10262B000301F401F401F401F401F401F401F401E8
:10263B00F401F401F401F401F401F401F401F401E7
:10264B00F403E803E803E803E803E803E803E8031B
:10265B00E803E803E803E803E803E803E803E80317
:10266B00E83F065B4F666D7D077F6FBF86DBCFE66E
:0C267B00EDFD87FFEF39F9BEC04000FF05
:00000001FF
