:06000000021C83021F98A0
:10000B00021D9A900025E0FE700690001CE0FF2276
:10001B00EE14FF900003E02FF50C25E02415F5827C
:10002B00E43422F583E493FC740193FDAE0478026F
:10003B00CEC313CE13D8F9FF900019EEF0A3EFF057
:10004B00EDAE047802C333CE33CED8F9FF7C007DFE
:10005B000A121A8F900000EEF0A3EFF0900000E070
:10006B00FEA3E07803CEC313CE13D8F9FF90001F85
:10007B00EEF0A3EFF0E50C25E024B4F582E43400B8
:10008B00F583E0F50FA3E0F51054079000B0F0E511
:10009B0010AE0F7803CEC313CE13D8F9F5108E0F15
:1000AB0054079000ABF0E5107803CEC313CE13D8F2
:1000BB00F9F5108E0F54019000FFF0E50FC313F507
:1000CB000FE51013F510540FA3F0E50FC4F854F01F
:1000DB00C868F50FE510C4540F48F510540F900085
:1000EB00FDF0900018E07003020B6690001BE070AF
:1000FB0003020B66E50C75F008A42429F582E434A1
:10010B0000F583C083C0829000FAE0D082D0837563
:10011B00F002121B31E0F50FA3E0F5109000B1E0F7
:10012B00607CE50C25E02402F582E43401F583E0E4
:10013B00FEA3E0FFC39510EE950F5025C3E5109F6E
:10014B00FFE50F9EFED390001AE09F900019E09EF2
:10015B00500F900006E004F0E0C39403400302024A
:10016B0007E50C25E02402F582E43401F583E0FE7B
:10017B00A3E0FFD39510EE950F4023EF9510FFEE04
:10018B00950FFED390001AE09F900019E09E500E41
:10019B00900007E004F0E0C394034002805E9000FF
:1001AB00B2E06072E50C25E02402F582E43401F53F
:1001BB0083E0FEA3E0FFD39510EE950F404BEF9538
:1001CB0010FFEE950FFEE50C25E02415F582E434C7
:1001DB0022F583D37401939FE4939E502C740825CE
:1001EB000CF582E43400F583E004F07408250CF57B
:1001FB0082E43400F583E0C39464401AE490002554
:10020B00F09000AA04F07FFF227408250CF582E41D
:10021B003400F583E4F0E50C25E02402F582E434A8
:10022B0001F583E0FEA3E0FF900000E0FCA3E0FDFE
:10023B00EF2DFFEE3CFEE50C25E02415F582E434B2
:10024B0022F5837401932FFFE4933EFED3E5109FB9
:10025B00E50F9E40028045E50C25E02402F582E483
:10026B003401F583E0FEA3E0FF900000E0FCA3E087
:10027B00FDC3EF9DFFEE9CFEE50C25E02415F582FA
:10028B00E43422F583E493FC740193FDC3EF9DFFEB
:10029B00EE9CFEC3E5109FE50F9E50048E0F8F1052
:1002AB00E50C75F008A42429F582E43400F583C02D
:1002BB0083C0829000FAE0D082D08375F002121BCB
:1002CB0031E50FF0A3E510F0E4F514F513F512F595
:1002DB0011F50DE50C75F008A42429F582E4340022
:1002EB00F58375F002E50D121B31E0FEA3E0FFE490
:1002FB00FCFDE5142FF514E5133EF513ED3512F562
:10030B0012EC3511F511050DE50DB404C6AF14AEA5
:10031B0013AD12AC117802121B0B8F148E138D12AE
:10032B008C11900023EEF0A3EFF0E50C25E02422D6
:10033B00F582E43401F583E0FCA3E0FD900019E0C5
:10034B00FAA3E0FBC3ED9BFDEC9ACD24ECCD34FF7F
:10035B00FCC3EF9DEE9C503DE50C25E02422F5827D
:10036B00E43401F583E0FEA3E024F6FFEE34FF90C6
:10037B000023F0A3EFF0900003E0FF900144E0B501
:10038B00070DB40804E4F080069001447408F09063
:10039B0000E77401F0E50C25E02422F582E434013A
:1003AB00F583E0FEA3E0FF2BFDEE3ACD2414CD3414
:1003BB0000FCD3900024E09D900023E09C4029EFAB
:1003CB00240AFFE43EF0A3EFF0900003E0FF90015E
:1003DB0044E0B5070DB40804E4F0800690014474C2
:1003EB0008F09000E77401F09000FAE0F50EE50CD0
:1003FB0075F008A42429F582E43400F58375F00226
:10040B00E50E121B31E0FEA3E0FFE48F148E13F513
:10041B0012F511150EE50ED394034003750E03E58B
:10042B000C75F008A42429F582E43400F58375F0EB
:10043B0002E50E121B31E0FEA3E0FFE4FCFD7801A8
:10044B00121B1E8F188E178D168C15150EE50ED3DD
:10045B0094034003750E03E50C75F008A42429F5ED
:10046B0082E43400F58375F002E50E121B31E0FED9
:10047B00A3E0FFE4FCFDE5142FF514E5133EF513A3
:10048B00ED3512F512EC3511F511AF18AE17AD169F
:10049B00AC15AB14AA13A912F8D3121AFA401AE529
:1004AB00149518F514E5139517F513E5129516F534
:1004BB0012E5119515F5118019C3E5189514F5146E
:1004CB00E5179513F513E5169512F512E51595112C
:1004DB00F511E50C25E02415F582E43422F583E4CF
:1004EB0093FE740193FFE4FCFDAB14AA13A912A8AD
:1004FB0011D3121AFA401F900003E0FF900144E061
:10050B00B5070DB40804E4F080069001447408F0BC
:10051B009000E77401F0900001E024F6FF900000DA
:10052B00E034FFFE90001FE0FCA3E0FDC3EF9DFF56
:10053B00EE9CFEEF7803CEC313CE13D8F9FFE50C78
:10054B0025E02422F582E43401F583E0FCA3E02FBF
:10055B00FFEC3EFE900023E0FCA3E0FDC39FEC9E6E
:10056B00500A9000B0E0601A14F080169000B0E0D2
:10057B0004F0900005E004FF9000B0E0D39F400230
:10058B00EFF0E50C25E02402F582E43401F583E07D
:10059B00FEA3E0FFD3ED9FEC9E5003020843E490D3
:1005AB000100F0900023E0FCA3E0FD9FF510EC9E12
:1005BB00F50FC3900001E09510900000E0950F40FF
:1005CB00030206FCE49000FDF0900004E0C39418D5
:1005DB0040030206F4A3E0F99000ABE0C39940039B
:1005EB000206EC9000FBE064017043E50C25E0246F
:1005FB0022F582E43401F583E0FEA3E0FF240AFB3D
:10060B00E43EFAD3ED9BEC9A401D900019E0FCA35D
:10061B00E0FDEF2DFFEE3CFEC3900024E09F900029
:10062B0023E09E50028007E49000ABF08006900020
:10063B00ABE004F0E914FF9000ABE0D39F50030252
:10064B0006DC9000B0E0940240030206DA9000ABA7
:10065B00EFF0E4900004F074D6250CF582E434003E
:10066B00F583E0C394804059E50C25E02422F58204
:10067B00E43401F583E0FEA3E0FF24F6FDEE34FF46
:10068B00FC900023E0FAA3E0FBD39DEA9C4042EFF1
:10069B00240AFFE43EFEC3EB9FEA9E503490001FFA
:1006AB00E0FEA3E0FFC3EB9FFFEA9EFEE50C25E017
:1006BB002402F582E43401F583EEF0A3EFF0020A95
:1006CB004F74D6250CF582E43400F583020835808F
:1006DB000074D6250CF582E43400F583E4F0020AAD
:1006EB004F9000ABE9F0020A4FE49000ABF0020A26
:1006FB004FE49000ABF074D6250CF582E43400F592
:10070B0083E004F0E50C25E02422F582E43401F5C6
:10071B0083E0FEA3E0FF240CFDE43EFCD390002419
:10072B00E09D900023E09C4005E49000FDF074D622
:10073B00250CF582E43400F583E0C39420500302CA
:10074B000A4F900004E0F97048EF24F6FFEE34FFF7
:10075B00FE900023E0FCA3E0FDD39FEC9E4032E52E
:10076B000C25E02422F582E43401F583E0FEA3E0BE
:10077B00240AFFE43EFEC3ED9FEC9E5014E50C25CE
:10078B00E02402F582E43401F583E475F001121ADA
:10079B00E474D6250CF582E43400F583E4F0900084
:1007AB0000E0FEA3E07802CEC313CE13D8F9FFD33B
:1007BB00E5109FE50F9E4078900005E02401FFE4D3
:1007CB0033FE9000FDE06F7001EE705BE97061E548
:1007DB000C25E02422F582E43401F583E0FEA3E04E
:1007EB00FF24F6FDEE34FFFC900023E0FAA3E0FBC0
:1007FB00D39DEA9C403AEF240AFFE43EFEC3EB9FF5
:10080B00EA9E502C90001FE0FEA3E0FFC3EB9FFF7E
:10081B00EA9EFEE50C25E02402F582E43401F58323
:10082B00EEF0A3EFF080099000FDE004F0020A4F18
:10083B00E49000FDF0020A4FE49000ABF09000FD55
:10084B00F0E50C25E02402F582E43401F583E0FEAB
:10085B00A3E0FF900000E0FCA3E0FDC3EF9DFFEEE3
:10086B009CFE900023E0FCA3E0FDC39FEC9E4003A5
:10087B000209B0900005E02401FFE433FE90010073
:10088B00E0C39FEE6480F87480984003020963E52F
:10089B000C25E02422F582E43401F583E0FEA3E08D
:1008AB0024F6FFEE34FFFEC3ED9FEC9E503CE50CAF
:1008BB0025E02422F582E43401F583E0FEA3E0FF7A
:1008CB00900019E0FCA3E0FDC3EF9DFFEE9CCF244D
:1008DB00ECCF34FFFED3900024E09F900023E09EEA
:1008EB004008900100E004F08077E4900100F09064
:1008FB000004E0706CE50C25E02422F582E4340161
:10090B00F583E0FEA3E0FF24F6FDEE34FFFC900040
:10091B0023E0FAA3E0FBD39DEA9C4045EF240AFFBA
:10092B00E43EFEC3EB9FEA9E5037E50C25E0240224
:10093B00F582E43401F583C083C082E0FEA3E0FFBF
:10094B0090001FE0FCA3E0FDC3EF9DFFEE9CD08267
:10095B00D083F0A3EFF08009900005E00490010034
:10096B00F0900005E0FF900100E0D39F5003020AD6
:10097B004F900004E0702690001FE0FEA3E0FF9074
:10098B000024E09FFF900023E09EFEE50C25E02471
:10099B0002F582E43401F583EEF0A3EFF0E490016D
:1009AB0000F0020A4FE4900100F074D6250CF5829A
:1009BB00E43400F583E004F074D6250CF582E434BE
:1009CB0000F583E0FF64016006EFC394204075904F
:1009DB000004E07061E50C25E02422F582E434018B
:1009EB00F583E0FEA3E0FF24F6FDEE34FFFC900060
:1009FB0023E0FAA3E0FBD39DEA9C403AEF240AFFE5
:100A0B00E43EFEC3EB9FEA9E502CE50C25E024024E
:100A1B00F582E43401F583C083C082E0FEA3E0FFDE
:100A2B0090001FE0FCA3E0FDC3EF9DFFEE9CD08286
:100A3B00D083F0A3EFF074D6250CF582E43400F5E7
:100A4B00837401F0900023E0FEA3E0FFE50C25E0AA
:100A5B002422F582E43401F583EEF0A3EFF090004D
:100A6B0005E014FF9000ABE0FED39F40089000FF21
:100A7B007401F08007EE70049000FFF09000B3E07B
:100A8B007003020B66E50C25E02435F582E4342275
:100A9B00F583E493FE740193FFE50C25E02402F546
:100AAB0082E43401F583E0FCA3E02FFFEC3EFEE58E
:100ABB000C25E02446F582E43401F583E0FCA3E049
:100ACB00D39FEC9E5003020B5974E8250CF582E47E
:100ADB003400F583E0C394FF500E74E8250CF582C7
:100AEB00E43400F583E004F0E50CC39408501F7464
:100AFB00017E00A80C088005C333CE33CED8F9FF96
:100B0B00900026E05EFEA3E05F4E60378022E50C8E
:100B1B0024F8FF74017E00A807088005C333CE3389
:100B2B00CED8F9FF900026E05EFEA3E05F4E601387
:100B3B00E49000ABF09000FFF09000B0F090000458
:100B4B007430F074D6250CF582E43400800974E817
:100B5B00250CF582E43400F583E4F09000FDE0759C
:100B6B000F00F510E510C4F8540FC868F510E50F29
:100B7B00C454F048F50F900100E02510F510E43552
:100B8B000FF50FE51025E0F510E50F33F50F90008D
:100B9B00FFE02510F510E4350FF50FE510AE0F78DB
:100BAB0003C333CE33CED8F9F5108E0F9000ABE0E4
:100BBB002510F510E4350FF50FE510AE0F7803C3D4
:100BCB0033CE33CED8F9F5108E0F9000B0E0251050
:100BDB00F510E4350FF50FE50C25E024B4F582E4B0
:100BEB003400F583E50FF0A3E510F0900025E01439
:100BFB00F0E06003020ED7900018E0600990001B34
:100C0B00E06003020D86900003E064086003020CB1
:100C1B00D19000E6E004F0E0C394085003020E8F7D
:100C2B009000187401F0E49000E6F0F50E90001DB2
:100C3B00E0FFE50EC39F4003020E8F900003E025FB
:100C4B000EF50CE4F514F513F512F511F50DE50C95
:100C5B0075F008A42429F582E43400F58375F002BD
:100C6B00E50D121B31E0FEA3E0FFE4FCFDE5142FC4
:100C7B00F514E5133EF513ED3512F512EC3511F5C0
:100C8B0011050DE50DB404C6AF14AE13AD12AC11C6
:100C9B007802121B0B8F148E138D128C11E50C2501
:100CAB00E02402F582E43401F583EEF0A3EFF0E5E6
:100CBB000C25E02422F582E43401F583EEF0A3EF5A
:100CCB00F0050E020C389000F8E004F0E0C3940835
:100CDB005003020E8F90001B7401F0E49000F8F0AB
:100CEB00F50E90001DE0FFE50EC39F4003020E8F33
:100CFB00900003E0250EF50CE4F514F513F512F551
:100D0B0011F50DE50C75F008A42429F582E43400E7
:100D1B00F58375F002E50D121B31E0FEA3E0FFE455
:100D2B00FCFDE5142FF514E5133EF513ED3512F527
:100D3B0012EC3511F511050DE50DB404C6AF14AE6B
:100D4B0013AD12AC117802121B0B8F148E138D1274
:100D5B008C11E50C25E02402F582E43401F583EED9
:100D6B00F0A3EFF0E50C25E02422F582E43401F545
:100D7B0083EEF0A3EFF0050E020CED900003E0FF05
:100D8B00900144E06F704B9000ADF0A3F0F50EF5C1
:100D9B000F75100190001DE0FFE50EC39F503390BF
:100DAB000003E0250EF50C25E024B4F582E43400B5
:100DBB00F583A3E030E60C9000ADE0450FF0A3E027
:100DCB004510F0050EE5102510F510E50F33F50F66
:100DDB0080C29000B3E07003020E8FE4900021F00C
:100DEB00F50EF50F75100190001DE0FFE50EC39F8A
:100DFB004003020E7D74E8250EF582E43400F58382
:100E0B00E0FF900005E0FEEFC39E402474F0250E3A
:100E1B00F582E43400F583E0C39E40149000217406
:100E2B0001F0900026E0450FF0A3E04510F0803272
:100E3B00900026E0FEA3E0FFE50F5EFCE5105F4CA3
:100E4B006020E510F4FDE50FF4FCEE5CFEEF5DFFBA
:100E5B00900026EEF0A3EFF09000ADE05CF0A3E085
:100E6B005DF0050EE5102510F510E50F33F50F02BB
:100E7B000DF2900026E0FEA3E0FF9000ADE04EF0F7
:100E8B00A3E04FF09000FAE004F0E0D394034002AB
:100E9B00E4F0900004E0600214F09000E7E06006DC
:100EAB009000047430F0900003E09000FAB4080F47
:100EBB00E09000D4F0900004E0900143F0800DE04E
:100ECB009000D5F0900004E0900145F090001CE0FC
:100EDB00F50CE4F0AF0C2253A8FEE4F59DF5C2F53A
:100EEB00C3F5C4F5C5F5C6F5CFF5B6F5CEF5A1F549
:100EFB00C1900025E060069001427403F0E490007D
:100F0B0025F09000AAE06008121728E49000AAF0E0
:100F1B009000F9E064036003020FF89000FCE0FF1F
:100F2B00900003F0BF080D9000D4E09000FAF09011
:100F3B000143800B9000D5E09000FAF0900145E062
:100F4B00900004F0900004E0D3940040089000FB64
:100F5B007401F08005E49000FBF0E49000E7F0F5FD
:100F6B000D90001DE0FFE50DC39F5070900003E056
:100F7B00250DF50C7D007C05E50D9021FD93FF7E85
:100F8B00002DFDEE3CFCEF2DFDEE3CFC8D82F58340
:100F9B00A3E0FE8D828C83E07C002400FDEC3EFC04
:100FAB00E50C25E02446F582E43401F583ECF0A34F
:100FBB00EDF0E50C75F008A42429F582E43400F576
:100FCB0083C083C0829000FAE0D082D08375F00298
:100FDB00121B31ECF0A3EDF0050D808590001DE0A8
:100FEB00900025F0E4900006F0A3F0800D9000F93E
:100FFB00E0B401069001427402F0900166E09000AB
:10100B0028F09000AFF0900022E0FF70179001667F
:10101B00E004F090001DE0FE900166E0C39E4011DD
:10102B00E4F0800D900166E004F0E0C39F4002E421
:10103B00F0900028E090001EF09021FD93B4080082
:10104B00505D901054F828287302106C0210740233
:10105B00107C02108402108C02109402109C02105F
:10106B00A4439D0143C2018036439D0243C20280CB
:10107B002E439D0443C2048026439D0843C208802F
:10108B001E439D1043C2108016439D2043C22080F7
:10109B000E439D4043C2408006439D8043C28090D7
:1010AB000028E004F0900022E0FF701190001DE09A
:1010BB00FE900028E0C39E402CE4F080289000288E
:1010CB00E0FED39F500D900022E0FFEEC39F401532
:1010DB00E4800E90001DE0FFEEC39F4008900022BD
:1010EB00E0900028F053B67F53A1FC43A10853A115
:1010FB00EF9000FCE0B4081AE4F0900101E0F5CFAA
:10110B0090001EE090220D93F5C6E4F5C59000AC5F
:10111B00801C9000FC7408F09000FEE0F5CF90006E
:10112B001EE090220593F5C6E4F5C59000A9E0F505
:10113B00CE53A1FB53B6DF43A180E4F50C00050CA5
:10114B00E50CB432F89000F97401F043A801E4F512
:10115B00C143A120900142E0600490001CF0E49098
:10116B000142F022121FD312207012162B7B2C7A05
:10117B00017DE87C037F011220C47BFF7A007D7F19
:10118B007C007F021220F17B187D187F181221132F
:10119B0075B102E558C3940F40F6E4F5580557E5D1
:1011AB0057940A4003E4F5571220ABE55724FE6031
:1011BB002414602D14604A14604C14604E24057086
:1011CB00CFE4F593F591AB1CAA1BAD1AAC19AF226A
:1011DB00121D0F80BBAF43AE4212209012200A802B
:1011EB00AFE521640160A9121ED58E538F54121ED8
:1011FB0015AF54AE53121B3D8E508F51121F5A8098
:10120B008F121F1A808A1219C18085055AE55AC39D
:10121B0094324003E4F55AE5216401700302119BFB
:10122B00C3E5549450E553940050440556E5569449
:10123B0019403CE4F556753903FBFAFDFCFF12200F
:10124B00F17B2C7A017D2C7C017F031220C4E4F509
:10125B000FFBFDFF1220DCE55AC3941950087B01EC
:10126B00E4FD7F1580067B177D177F17122113E591
:10127B003964057057C3E5549464E5539400504C9E
:10128B000556E55694195003021334E4F556753997
:10129B0003E5556021E4F555FBFAFDFCFF1220F147
:1012AB007B2C7A017D2C7C017F031220C4E4F50F8B
:1012BB00FBFDFF1220DCE55AC394195007E4FBFD3C
:1012CB007F1580627B177D177F17805AD3E5549467
:1012DB007DE553940F40520556E556D3941940497A
:1012EB00E4F556753903E5556021E4F555FBFAFD38
:1012FB00FCFF1220F17B2C7A017D2C7C017F0312E9
:10130B0020C4E4F50FFBFDFF1220DCE55AC3941952
:10131B005007E4FBFD7F0A800DE55AC39419400981
:10132B007B177D177F17122113E5396403600302C6
:10133B00119BD3E55494C5E5539402500302119BC2
:10134B00E55494CAE553940D400302119BE4F53E1A
:10135B00F53DF53A75550175390102119BC0A7C0D2
:10136B0086E4F586F5A753A8FEAFC1AEB7F59DF59C
:10137B00C253A8FE9000F9E0640160030214F4EF7D
:10138B0020E4030214E9EE60030214E99000AFE0DD
:10139B00FF900028E0FE6F703C900022E0FF70028F
:1013AB008005EEC39F40089000F97403F0802690EF
:1013BB000002E0900028F09000AFF090000204F0E3
:1013CB0090001DE0FF900002E0C39F4008900022B8
:1013DB00E0900002F09000F9E0640370030214F453
:1013EB00900028E090001EF09021FD93B40800506F
:1013FB005D901403F828287302141B0214230214A3
:10140B002B02143302143B02144302144B021453E9
:10141B00439D0143C2018036439D0243C202802E8D
:10142B00439D0443C2048026439D0843C208801E8B
:10143B00439D1043C2108016439D2043C220800E53
:10144B00439D4043C2408006439D8043C280900031
:10145B0028E004F0900022E0FF701190001DE0FEE8
:10146B00900028E0C39E402CE4F08028900028E0F8
:10147B00FED39F500D900022E0FFEEC39F4015E47A
:10148B00800E90001DE0FFEEC39F4008900022E00D
:10149B00900028F09000FCE0B408189000FEE0F5F6
:1014AB00CF90001EE090220593F5C6E4F5C59000A1
:1014BB00A98016900101E0F5CF90001EE090220D5F
:1014CB0093F5C6E4F5C59000ACE0F5CEE4FF000F54
:1014DB00BF32FB43A801E4F5C143A120800B90016F
:1014EB00427401F0E49000F9F0D086D0A7221221CB
:1014FB0001055EE55EC394044003E4F55EE55E64BE
:10150B0001705BEF90225593FEC330E001D39280C4
:10151B00EEC330E101D392A4EF90225593FEC3307A
:10152B00E201D392A1EEC330E301D39290EF90226C
:10153B005593FEC330E401D39283EEC330E501D360
:10154B0092A3EF90225593FEC330E601D392A2EE05
:10155B00C330E701D39291C2B4D281D28222E55E2D
:10156B006402705BED90225593FFC330E001D39280
:10157B0080EFC330E101D392A4ED90225593FFC3CA
:10158B0030E201D392A1EFC330E301D39290ED90FF
:10159B00225593FFC330E401D39283EFC330E501AF
:1015AB00D392A3ED90225593FFC330E601D392A2C1
:1015BB00EFC330E701D39291D2B4C281D28222E53C
:1015CB005E6403705AEB90225593FFC330E001D356
:1015DB009280EFC330E101D392A4EB90225593FF9D
:1015EB00C330E201D392A1EFC330E301D39290EB6E
:1015FB0090225593FFC330E401D39283EFC330E5C0
:10160B0001D392A3EB90225593FFC330E601D39203
:10161B00A2EFC330E701D39291D2B4D281C282221E
:10162B0090001D7403F0E4900022F090000574020A
:10163B00F09000FE7407F0E5CE543F4440F5CE9099
:10164B0000A9F0E5CE54CF4430F5CE53CEF3E5CE22
:10165B0054FC4403F5CE900101740EF0E5CE543FDB
:10166B0044C0F5CE9000ACF0E5CE54CF4430F5CE6F
:10167B0053CEF3E5CE54FC4403F5CEE49000B1F029
:10168B009000B204F09000B3F0E4F5B2000000005B
:10169B00FF90001DE0FEEFC39E5062EF9021FD9383
:1016AB00B4080050559016B7F82828730216CF02CD
:1016BB0016D60216DD0216E40216EB0216F202161D
:1016CB00F9021700C29743E280802FC2A043E301C7
:1016DB008028C2A143E3028021C2A243E304801A03
:1016EB00C2A343E3088013C2A443E310800CC2A53A
:1016FB0043E3208005C2A643E3400F8094C2A74377
:10170B00E38053908743E27853B0DF43E420438672
:10171B00405390F043910F5386BF02211AE490007F
:10172B00ADF0A3F0900026F0A3F09000F9F090003C
:10173B0025F0900018F090001BF09000E6F0900060
:10174B00F8F09000D4F0900143F09000D5F09001A8
:10175B0045F09000FAF0900004F09000E7F0900054
:10176B00FBF0A37408F0900003F0900144F0E4FF49
:10177B0090001DE0FEEFC39E5072AE07EF2408FDF4
:10178B00E433FCEED39DEC6480F8748098505AEEF1
:10179B0025E02402F582E43401F583E4F0A3F0EEB6
:1017AB0025E02422F582E43401F583E4F0A3F0EE86
:1017BB0025E024B4F582E43400F583E4F0A3F0745F
:1017CB00D62EF582E43400F583E4F074082EF5820E
:1017DB00E43400F583E4F074E82EF582E43400F58C
:1017EB0083E4F074082EFE80930F8084E490014212
:1017FB00F090001CF0900166F0900022E090000247
:10180B00F022015900015501015800015700015AFE
:10181B0000015600012100021D0000021F00000103
:10182B00230001220002190000021B0000015E00D0
:10183B00015B00015C00015D00014D00024A0000EC
:10184B00014C000147000248000002530000015206
:10185B000002500000024E000002280000012C0084
:10186B00022A0000012500012400012700012600A7
:10187B000232000002340000012F00022D00000292
:10188B00300000013B000136000137000139010136
:10189B003D00013E00013A00013800013C0060426E
:1018AB000167000A00000000000B00010001000CA2
:1018BB0000020002000D00030003000E00040004F0
:1018CB00000F0005000500100006000600110007C0
:1018DB000007001200080008001300090009001699
:1018EB000000000000A90712210AEDC330E001D36C
:1018FB0092A3EDC330E101D392A2EDC330E201D349
:10190B009291EDC330E301D39280EDC330E401D368
:10191B0092A1EDC330E501D39290E97003D29222EC
:10192B00E9640170580535E53570020534EBAE02FC
:10193B007803C333CE33CED8F924FFFFEE34FFFE4A
:10194B00C3E5359FE5349E50320533E53370020510
:10195B0032C3943FE532941F4005E4F532F533C3AF
:10196B00E533949FE532940F5003C29222C3E533C3
:10197B00949FE532940F403DD292228032B90235CA
:10198B000535E53570020534EBF44A7003C292223B
:10199B00EBAE027803C333CE33CED8F924FFFFEE80
:1019AB0034FFFEC3E5359FE5349E5003C292228E71
:1019BB00348F35D292220537E537C394C75035E5BE
:1019CB004B6403454A7030753902E54C644E702701
:1019DB007B64FA7D64FC7F021220C4750F0AE4FB62
:1019EB007D067F041220DCE4FBFD7F0A12211375B8
:1019FB003B0180037537C8E53B7003021A8E053C2B
:101A0B00E53CD39431407CE4F53C0538E538940B48
:101A1B005038E53875F006A42467F582E43401F5F7
:101A2B0083A3E0FFE53875F006A42469F582E4345E
:101A3B0001F583A3E0FDE53875F006A4246BF58270
:101A4B00E43401F583A3E0FB802EE538640B702BA7
:101A5B00AE50AF51FC7D0A121A8F7C007D0A121A10
:101A6B008FAF05C007AE50AF517C007D0A121A8FA5
:101A7B00ED240AFDD0077B14022113E4F5387539E8
:101A8B0001F53B22BC000BBE0029EF8DF084FFADAE
:101A9B00F022E4CCF875F008EF2FFFEE33FEEC33B9
:101AAB00FCEE9DEC984005FCEE9DFE0FD5F0E9E4B5
:101ABB00CEFD22EDF8F5F0EE8420D21CFEADF075D4
:101ACB00F008EF2FFFED33FD4007985006D5F0F2ED
:101ADB0022C398FD0FD5F0EA22C5F0F8A3E028F059
:101AEB00C5F0F8E582158270021583E038F022EB21
:101AFB009FF5F0EA9E42F0E99D42F0E89C45F0220A
:101B0B00E8600FECC313FCED13FDEE13FEEF13FFB8
:101B1B00D8F122E8600FEFC333FFEE33FEED33FD58
:101B2B00EC33FCD8F122A42582F582E5F03583F560
:101B3B0083228E0C8F0DE4FFFE90212193F50E7402
:101B4B000193F50FD390218F740193950DE4939529
:101B5B000C40047B378002E4FBD3E50D950FE50CBD
:101B6B00950E5018EB25E02421F582E43421F58302
:101B7B00E493F50E740193F50F0B80DDEBD39465B5
:101B8B0040067E007F648049EB7004FEFF8042EBD1
:101B9B0025E0241FF582E43421F583E493FE7401E0
:101BAB0093FFEB25E0241DF582E43421F583C37408
:101BBB0001939FFDE4939EFCC3E50D9FFFE50C9EF7
:101BCB00FE121A8FEB24FFFDE434FFCD2FFFED3E09
:101BDB00FED3EF9464EE940040047E007F6422AC4D
:101BEB0007A903EC2DFDE50B75F002A4FFAEF0C3C6
:101BFB00E52C9FEE6480F87480984004E4F52C2269
:101C0B00C3E52C9FEE6480F8748098506A0529E533
:101C1B002970020528ED75F008A424FFFFE5F034C8
:101C2B00FFFEC3E5299FE5289E4007E4F528F5292B
:101C3B00052CEC75F008A424FFFFE5F034FFFEC380
:101C4B00E5299FE5289E5017E925E0FFE50B25E0E8
:101C5B00C39FFFE52CC39F5003D2B622C2B622ED21
:101C6B0075F008A424FFFFE5F034FFFEC3E5299FC0
:101C7B00E5289E5002C2B622787FE4F6D8FD758126
:101C8B005E021CCA02116FE493A3F8E493A3400312
:101C9B00F68001F208DFF48029E493A3F8540724BB
:101CAB000CC8C333C4540F4420C8834004F456807B
:101CBB000146F6DFE4800B010204081020408090FF
:101CCB00180DE47E019360BCA3FF543F30E509542B
:101CDB001FFEE493A360010ECF54C025E060A84023
:101CEB00B8E493A3FAE493A3F8E493A3C8C582C81A
:101CFB00CAC583CAF0A3C8C582C8CAC583CADFE9EF
:101D0B00DEE780BE8F0C8D828C83E5217009E52385
:101D1B00C3950C50028070E5216401703343E408D5
:101D2B000520E5207002051FAE02AF037C007D1479
:101D3B00121A8FEF24FFFFEE34FFFEC3E5209FE561
:101D4B001F9E404AE4F51FF52075210253E4F7224C
:101D5B00E52164027038051EE51E7002051DAE8379
:101D6B00AF827C007D14121A8FEF24FFFFEE34FF3D
:101D7B00FEC3E51E9FE51D9E4014E4F51DF51E05F3
:101D8B0023E523950C500475210122E4F52122C093
:101D9B00E0C0F0C083C082C0D075D000C000C001CD
:101DAB00C002C003C004C005C006C007758AE37536
:101DBB008BF7C28D0558E521B40102B2B385260B12
:101DCB00AB27AD24AF25121BEAE5597F0070027FCC
:101DDB00018F59E559700FAB31AA30AD2EAC2DAF39
:101DEB002F1218F08009AB5DAD5CAF5B1214F9D00C
:101DFB0007D006D005D004D003D002D001D000D03C
:101E0B00D0D082D083D0F0D0E032E4F9FDFCFBFAE5
:101E1B00F582F5837008AC06AD07AA06AB07D3EFC6
:101E2B009DEE9C4006AC06AD07800BC3EF9BEE9A74
:101E3B005004AA06AB07EF2582F582EE3583F583B6
:101E4B0009E9C3940A4022E4F9E5829DFFE5839CEE
:101E5B00CFC39BCF9AFEEF7803CEC313CE13D8F923
:101E6B00F5548E53E4F583F582221220408E428F77
:101E7B0043E546701CF544F5450541E54170020507
:101E8B0040C394B4E5409400403BE4F540F54180F9
:101E9B0021E54345426025E4F540F5410545E5451F
:101EAB0070020544C39410E544940E4018E4F544C5
:101EBB00F54512211AE4F542F5438009E4F544F5A2
:101ECB0045F540F541AE42AF43227F64E4FDFC5340
:101EDB00E4F7F5937594EFF595759188759397E500
:101EEB009330E00CAE071FEE60060075B10280EF79
:101EFB00AF977C00AD07EDC4F8540FC868FDECC478
:101F0B0054F048FCAF96EF2DFDE43CFEAF052205E7
:101F1B0036E536D394314036E53964017030753689
:101F2B0032FBFD7F0A122113E4FBFAFDFCFF1220AA
:101F3B00F1E4FBFAFDFCFF1220C4E4F50FFBFDFFFF
:101F4B001220DCE54B6401454A700375390222EF20
:101F5B00B54F09EEB54E05E4F552802CC3EF954F06
:101F6B00EE954E400E53520F0552E552D3940A4054
:101F7B0017800E5352F074102552F552D394A04093
:101F8B0007E4F5528E508F518E4E8F4F22C0E0C01A
:101F9B00F0C083C082C0D075D000C000C001C002A9
:101FAB00C003C004C005C006C007121368D007D019
:101FBB0006D005D004D003D002D001D000D0D0D0B1
:101FCB0082D083D0F0D0E032E4F586C2AFF5B275A3
:101FDB00B10275E1FFF5E9F580D281D28275E2FF9E
:101FEB00F5EAF590D29275D90575EF0275E39FF579
:101FFB00EBF5A075E4FFF5ECF5B0D2B4D2AF22E56A
:10200B004B454A600FE54945487009F54C854A48F0
:10201B00854B4922E54BB5490FE54AB5480AE54CD6
:10202B00C394FE500F054C22E54B454A7006F54C08
:10203B00F548F549227546019000ADE0FEA3E0FF9F
:10204B00EE701AEF24FB501424F5601024F0600C92
:10205B0024E0600824C060042478700122E4F54673
:10206B007EFF7FFF22438901758F04758AE3758B91
:10207B00F7C28DD28CD2A9D2AF75B80275B402E477
:10208B00F5B9F5B522E4F54AF54BEF30E003434BD8
:10209B0001EF30E103434B02EF30E203434B0422E9
:1020AB00053FE53FC394064009E4F53F121E750258
:1020BB000EE212000E12000E22E4F523F521F51F9D
:1020CB00F520F51DF51E8F228A1B8B1C8C198D1A82
:1020DB0022E4F528F529F52CF52AF52B8F258D24EF
:1020EB008B27850F2622E4F532F5338F2F8C2D8D20
:1020FB002E8A308B3122D292D2B4D281D28222D28A
:10210B0092D2B4D281D282228F5B8D5C8B5D229076
:10211B0000AA7401F0220E930E820E700E5D0E4A11
:10212B000E360E220E0D0DF70DE10DCA0DB20D9AE6
:10213B000D810D670D4D0D320D160CFA0CDD0CBF1C
:10214B000CA10C820C630C430C220C010BDF0BBD9E
:10215B000B9A0B770B540B300B0B0AE60AC10A9C3C
:10216B000A760A500A2A0A0309DC09B6098F09689C
:10217B000941091908F208CB08A4087D0856083054
:10218B00080907E307BD07970771074C07270702E5
:10219B0006DE06BA069606730650062E060C05EBEF
:1021AB0005CA05A90589056A054B052C050E04F121
:1021BB0004D404B8049C04800465044B0431041853
:1021CB0003FF03E703CF03B803A1038A0375035F80
:1021DB00034A03360322030F02FC02E902D702C5AE
:1021EB0002B402A3029302820273026302550246F7
:1021FB000238000106000000000003030303030381
:10220B000303030303030303030301F401F401F4C6
:10221B0001F401F401F401F401F401F401F401F40B
:10222B0001F401F401F401F401F403E803E803E819
:10223B0003E803E803E803E803E803E803E803E83B
:10224B0003E803E803E803E803E83F065B4F666D2A
:10225B007D077F6FBF86DBCFE6EDFD87FFEF39F99B
:03226B00BE00FFB3
:00000001FF
