:060000000219B5021D12F9
:10000B00021ACC900025E0FE700690001CE0FF2247
:10001B00EE14FF900003E02FF50C25E0248FF58202
:10002B00E4341FF583E493FC740193FDAE04780272
:10003B00CEC313CE13D8F9FF900019EEF0A3EFF057
:10004B00EDAE047802C333CE33CED8F9FF7C007DFE
:10005B000A1217C1900000EEF0A3EFF0900000E041
:10006B00FEA3E07803CEC313CE13D8F9FF90001F85
:10007B00EEF0A3EFF0E50C25E024B4F582E43400B8
:10008B00F583E0F50FA3E0F51054079000B0F0E511
:10009B0010AE0F7803CEC313CE13D8F9F5108E0F15
:1000AB0054079000ABF0E5107803CEC313CE13D8F2
:1000BB00F9F5108E0F54019000FFF0E50FC313F507
:1000CB000FE51013F510540FA3F0E50FC4F854F01F
:1000DB00C868F50FE510C4540F48F510540F900085
:1000EB00FDF0900018E07003020B6690001BE070AF
:1000FB0003020B66E50C75F008A42429F582E434A1
:10010B0000F583C083C0829000FAE0D082D0837563
:10011B00F002121863E0F50FA3E0F5109000B1E0C8
:10012B00607CE50C25E02402F582E43401F583E0E4
:10013B00FEA3E0FFC39510EE950F5025C3E5109F6E
:10014B00FFE50F9EFED390001AE09F900019E09EF2
:10015B00500F900006E004F0E0C39403400302024A
:10016B0007E50C25E02402F582E43401F583E0FE7B
:10017B00A3E0FFD39510EE950F4023EF9510FFEE04
:10018B00950FFED390001AE09F900019E09E500E41
:10019B00900007E004F0E0C394034002805E9000FF
:1001AB00B2E06072E50C25E02402F582E43401F53F
:1001BB0083E0FEA3E0FFD39510EE950F404BEF9538
:1001CB0010FFEE950FFEE50C25E0248FF582E4344D
:1001DB001FF583D37401939FE4939E502C740825D1
:1001EB000CF582E43400F583E004F07408250CF57B
:1001FB0082E43400F583E0C39464401AE490002554
:10020B00F09000AA04F07FFF227408250CF582E41D
:10021B003400F583E4F0E50C25E02402F582E434A8
:10022B0001F583E0FEA3E0FF900000E0FCA3E0FDFE
:10023B00EF2DFFEE3CFEE50C25E0248FF582E43438
:10024B001FF5837401932FFFE4933EFED3E5109FBC
:10025B00E50F9E40028045E50C25E02402F582E483
:10026B003401F583E0FEA3E0FF900000E0FCA3E087
:10027B00FDC3EF9DFFEE9CFEE50C25E0248FF58280
:10028B00E4341FF583E493FC740193FDC3EF9DFFEE
:10029B00EE9CFEC3E5109FE50F9E50048E0F8F1052
:1002AB00E50C75F008A42429F582E43400F583C02D
:1002BB0083C0829000FAE0D082D08375F0021218CE
:1002CB0063E50FF0A3E510F0E4F514F513F512F563
:1002DB0011F50DE50C75F008A42429F582E4340022
:1002EB00F58375F002E50D121863E0FEA3E0FFE461
:1002FB00FCFDE5142FF514E5133EF513ED3512F562
:10030B0012EC3511F511050DE50DB404C6AF14AEA5
:10031B0013AD12AC11780212183D8F148E138D127F
:10032B008C11900023EEF0A3EFF0E50C25E02422D6
:10033B00F582E43401F583E0FCA3E0FD900019E0C5
:10034B00FAA3E0FBC3ED9BFDEC9ACD24ECCD34FF7F
:10035B00FCC3EF9DEE9C503DE50C25E02422F5827D
:10036B00E43401F583E0FEA3E024F6FFEE34FF90C6
:10037B000023F0A3EFF0900003E0FF900144E0B501
:10038B00070DB40804E4F080069001447408F09063
:10039B0000E77401F0E50C25E02422F582E434013A
:1003AB00F583E0FEA3E0FF2BFDEE3ACD2414CD3414
:1003BB0000FCD3900024E09D900023E09C4029EFAB
:1003CB00240AFFE43EF0A3EFF0900003E0FF90015E
:1003DB0044E0B5070DB40804E4F0800690014474C2
:1003EB0008F09000E77401F09000FAE0F50EE50CD0
:1003FB0075F008A42429F582E43400F58375F00226
:10040B00E50E121863E0FEA3E0FFE48F148E13F5E4
:10041B0012F511150EE50ED394034003750E03E58B
:10042B000C75F008A42429F582E43400F58375F0EB
:10043B0002E50E121863E0FEA3E0FFE4FCFD780179
:10044B001218508F188E178D168C15150EE50ED3AE
:10045B0094034003750E03E50C75F008A42429F5ED
:10046B0082E43400F58375F002E50E121863E0FEAA
:10047B00A3E0FFE4FCFDE5142FF514E5133EF513A3
:10048B00ED3512F512EC3511F511AF18AE17AD169F
:10049B00AC15AB14AA13A912F8D312182C401AE5F9
:1004AB00149518F514E5139517F513E5129516F534
:1004BB0012E5119515F5118019C3E5189514F5146E
:1004CB00E5179513F513E5169512F512E51595112C
:1004DB00F511E50C25E0248FF582E4341FF583E458
:1004EB0093FE740193FFE4FCFDAB14AA13A912A8AD
:1004FB0011D312182C401F900003E0FF900144E031
:10050B00B5070DB40804E4F080069001447408F0BC
:10051B009000E77401F0900001E024F6FF900000DA
:10052B00E034FFFE90001FE0FCA3E0FDC3EF9DFF56
:10053B00EE9CFEEF7803CEC313CE13D8F9FFE50C78
:10054B0025E02422F582E43401F583E0FCA3E02FBF
:10055B00FFEC3EFE900023E0FCA3E0FDC39FEC9E6E
:10056B00500A9000B0E0601A14F080169000B0E0D2
:10057B0004F0900005E004FF9000B0E0D39F400230
:10058B00EFF0E50C25E02402F582E43401F583E07D
:10059B00FEA3E0FFD3ED9FEC9E5003020843E490D3
:1005AB000100F0900023E0FCA3E0FD9FF510EC9E12
:1005BB00F50FC3900001E09510900000E0950F40FF
:1005CB00030206FCE49000FDF0900004E0C39418D5
:1005DB0040030206F4A3E0F99000ABE0C39940039B
:1005EB000206EC9000FBE064017043E50C25E0246F
:1005FB0022F582E43401F583E0FEA3E0FF240AFB3D
:10060B00E43EFAD3ED9BEC9A401D900019E0FCA35D
:10061B00E0FDEF2DFFEE3CFEC3900024E09F900029
:10062B0023E09E50028007E49000ABF08006900020
:10063B00ABE004F0E914FF9000ABE0D39F50030252
:10064B0006DC9000B0E0940240030206DA9000ABA7
:10065B00EFF0E4900004F074D6250CF582E434003E
:10066B00F583E0C394804059E50C25E02422F58204
:10067B00E43401F583E0FEA3E0FF24F6FDEE34FF46
:10068B00FC900023E0FAA3E0FBD39DEA9C4042EFF1
:10069B00240AFFE43EFEC3EB9FEA9E503490001FFA
:1006AB00E0FEA3E0FFC3EB9FFFEA9EFEE50C25E017
:1006BB002402F582E43401F583EEF0A3EFF0020A95
:1006CB004F74D6250CF582E43400F583020835808F
:1006DB000074D6250CF582E43400F583E4F0020AAD
:1006EB004F9000ABE9F0020A4FE49000ABF0020A26
:1006FB004FE49000ABF074D6250CF582E43400F592
:10070B0083E004F0E50C25E02422F582E43401F5C6
:10071B0083E0FEA3E0FF240CFDE43EFCD390002419
:10072B00E09D900023E09C4005E49000FDF074D622
:10073B00250CF582E43400F583E0C39420500302CA
:10074B000A4F900004E0F97048EF24F6FFEE34FFF7
:10075B00FE900023E0FCA3E0FDD39FEC9E4032E52E
:10076B000C25E02422F582E43401F583E0FEA3E0BE
:10077B00240AFFE43EFEC3ED9FEC9E5014E50C25CE
:10078B00E02402F582E43401F583E475F0011218DC
:10079B001674D6250CF582E43400F583E4F0900052
:1007AB0000E0FEA3E07802CEC313CE13D8F9FFD33B
:1007BB00E5109FE50F9E4078900005E02401FFE4D3
:1007CB0033FE9000FDE06F7001EE705BE97061E548
:1007DB000C25E02422F582E43401F583E0FEA3E04E
:1007EB00FF24F6FDEE34FFFC900023E0FAA3E0FBC0
:1007FB00D39DEA9C403AEF240AFFE43EFEC3EB9FF5
:10080B00EA9E502C90001FE0FEA3E0FFC3EB9FFF7E
:10081B00EA9EFEE50C25E02402F582E43401F58323
:10082B00EEF0A3EFF080099000FDE004F0020A4F18
:10083B00E49000FDF0020A4FE49000ABF09000FD55
:10084B00F0E50C25E02402F582E43401F583E0FEAB
:10085B00A3E0FF900000E0FCA3E0FDC3EF9DFFEEE3
:10086B009CFE900023E0FCA3E0FDC39FEC9E4003A5
:10087B000209B0900005E02401FFE433FE90010073
:10088B00E0C39FEE6480F87480984003020963E52F
:10089B000C25E02422F582E43401F583E0FEA3E08D
:1008AB0024F6FFEE34FFFEC3ED9FEC9E503CE50CAF
:1008BB0025E02422F582E43401F583E0FEA3E0FF7A
:1008CB00900019E0FCA3E0FDC3EF9DFFEE9CCF244D
:1008DB00ECCF34FFFED3900024E09F900023E09EEA
:1008EB004008900100E004F08077E4900100F09064
:1008FB000004E0706CE50C25E02422F582E4340161
:10090B00F583E0FEA3E0FF24F6FDEE34FFFC900040
:10091B0023E0FAA3E0FBD39DEA9C4045EF240AFFBA
:10092B00E43EFEC3EB9FEA9E5037E50C25E0240224
:10093B00F582E43401F583C083C082E0FEA3E0FFBF
:10094B0090001FE0FCA3E0FDC3EF9DFFEE9CD08267
:10095B00D083F0A3EFF08009900005E00490010034
:10096B00F0900005E0FF900100E0D39F5003020AD6
:10097B004F900004E0702690001FE0FEA3E0FF9074
:10098B000024E09FFF900023E09EFEE50C25E02471
:10099B0002F582E43401F583EEF0A3EFF0E490016D
:1009AB0000F0020A4FE4900100F074D6250CF5829A
:1009BB00E43400F583E004F074D6250CF582E434BE
:1009CB0000F583E0FF64016006EFC394204075904F
:1009DB000004E07061E50C25E02422F582E434018B
:1009EB00F583E0FEA3E0FF24F6FDEE34FFFC900060
:1009FB0023E0FAA3E0FBD39DEA9C403AEF240AFFE5
:100A0B00E43EFEC3EB9FEA9E502CE50C25E024024E
:100A1B00F582E43401F583C083C082E0FEA3E0FFDE
:100A2B0090001FE0FCA3E0FDC3EF9DFFEE9CD08286
:100A3B00D083F0A3EFF074D6250CF582E43400F5E7
:100A4B00837401F0900023E0FEA3E0FFE50C25E0AA
:100A5B002422F582E43401F583EEF0A3EFF090004D
:100A6B0005E014FF9000ABE0FED39F40089000FF21
:100A7B007401F08007EE70049000FFF09000B3E07B
:100A8B007003020B66E50C25E024AFF582E4341FFE
:100A9B00F583E493FE740193FFE50C25E02402F546
:100AAB0082E43401F583E0FCA3E02FFFEC3EFEE58E
:100ABB000C25E02446F582E43401F583E0FCA3E049
:100ACB00D39FEC9E5003020B5974E8250CF582E47E
:100ADB003400F583E0C394FF500E74E8250CF582C7
:100AEB00E43400F583E004F0E50CC39408501F7464
:100AFB00017E00A80C088005C333CE33CED8F9FF96
:100B0B00900026E05EFEA3E05F4E60378022E50C8E
:100B1B0024F8FF74017E00A807088005C333CE3389
:100B2B00CED8F9FF900026E05EFEA3E05F4E601387
:100B3B00E49000ABF09000FFF09000B0F090000458
:100B4B007430F074D6250CF582E43400800974E817
:100B5B00250CF582E43400F583E4F09000FDE0759C
:100B6B000F00F510E510C4F8540FC868F510E50F29
:100B7B00C454F048F50F900100E02510F510E43552
:100B8B000FF50FE51025E0F510E50F33F50F90008D
:100B9B00FFE02510F510E4350FF50FE510AE0F78DB
:100BAB0003C333CE33CED8F9F5108E0F9000ABE0E4
:100BBB002510F510E4350FF50FE510AE0F7803C3D4
:100BCB0033CE33CED8F9F5108E0F9000B0E0251050
:100BDB00F510E4350FF50FE50C25E024B4F582E4B0
:100BEB003400F583E50FF0A3E510F0900025E01439
:100BFB00F0E06003020ED7900018E0600990001B34
:100C0B00E06003020D86900003E064086003020CB1
:100C1B00D19000E6E004F0E0C394085003020E8F7D
:100C2B009000187401F0E49000E6F0F50E90001DB2
:100C3B00E0FFE50EC39F4003020E8F900003E025FB
:100C4B000EF50CE4F514F513F512F511F50DE50C95
:100C5B0075F008A42429F582E43400F58375F002BD
:100C6B00E50D121863E0FEA3E0FFE4FCFDE5142F95
:100C7B00F514E5133EF513ED3512F512EC3511F5C0
:100C8B0011050DE50DB404C6AF14AE13AD12AC11C6
:100C9B00780212183D8F148E138D128C11E50C25D2
:100CAB00E02402F582E43401F583EEF0A3EFF0E5E6
:100CBB000C25E02422F582E43401F583EEF0A3EF5A
:100CCB00F0050E020C389000F8E004F0E0C3940835
:100CDB005003020E8F90001B7401F0E49000F8F0AB
:100CEB00F50E90001DE0FFE50EC39F4003020E8F33
:100CFB00900003E0250EF50CE4F514F513F512F551
:100D0B0011F50DE50C75F008A42429F582E43400E7
:100D1B00F58375F002E50D121863E0FEA3E0FFE426
:100D2B00FCFDE5142FF514E5133EF513ED3512F527
:100D3B0012EC3511F511050DE50DB404C6AF14AE6B
:100D4B0013AD12AC11780212183D8F148E138D1245
:100D5B008C11E50C25E02402F582E43401F583EED9
:100D6B00F0A3EFF0E50C25E02422F582E43401F545
:100D7B0083EEF0A3EFF0050E020CED900003E0FF05
:100D8B00900144E06F704B9000ADF0A3F0F50EF5C1
:100D9B000F75100190001DE0FFE50EC39F503390BF
:100DAB000003E0250EF50C25E024B4F582E43400B5
:100DBB00F583A3E030E60C9000ADE0450FF0A3E027
:100DCB004510F0050EE5102510F510E50F33F50F66
:100DDB0080C29000B3E07003020E8FE4900021F00C
:100DEB00F50EF50F75100190001DE0FFE50EC39F8A
:100DFB004003020E7D74E8250EF582E43400F58382
:100E0B00E0FF900005E0FEEFC39E402474F0250E3A
:100E1B00F582E43400F583E0C39E40149000217406
:100E2B0001F0900026E0450FF0A3E04510F0803272
:100E3B00900026E0FEA3E0FFE50F5EFCE5105F4CA3
:100E4B006020E510F4FDE50FF4FCEE5CFEEF5DFFBA
:100E5B00900026EEF0A3EFF09000ADE05CF0A3E085
:100E6B005DF0050EE5102510F510E50F33F50F02BB
:100E7B000DF2900026E0FEA3E0FF9000ADE04EF0F7
:100E8B00A3E04FF09000FAE004F0E0D394034002AB
:100E9B00E4F0900004E0600214F09000E7E06006DC
:100EAB009000047430F0900003E09000FAB4080F47
:100EBB00E09000D4F0900004E0900143F0800DE04E
:100ECB009000D5F0900004E0900145F090001CE0FC
:100EDB00F50CE4F0AF0C2253A8FEE4F59DF5C2F53A
:100EEB00C3F5C4F5C5F5C6F5CFF5B6F5CEF5A1F549
:100EFB00C1900025E060069001427403F0E490007D
:100F0B0025F09000AAE0600812152FE49000AAF0DB
:100F1B009000F9E064036003020FF89000FCE0FF1F
:100F2B00900003F0BF080D9000D4E09000FAF09011
:100F3B000143800B9000D5E09000FAF0900145E062
:100F4B00900004F0900004E0D3940040089000FB64
:100F5B007401F08005E49000FBF0E49000E7F0F5FD
:100F6B000D90001DE0FFE50DC39F5070900003E056
:100F7B00250DF50C7D007C05E50D901F7793FF7E0D
:100F8B00002DFDEE3CFCEF2DFDEE3CFC8D82F58340
:100F9B00A3E0FE8D828C83E07C002400FDEC3EFC04
:100FAB00E50C25E02446F582E43401F583ECF0A34F
:100FBB00EDF0E50C75F008A42429F582E43400F576
:100FCB0083C083C0829000FAE0D082D08375F00298
:100FDB00121863ECF0A3EDF0050D808590001DE079
:100FEB00900025F0E4900006F0A3F0800D9000F93E
:100FFB00E0B401069001427402F0900166E09000AB
:10100B0028F09000AFF0900022E0FF70179001667F
:10101B00E004F090001DE0FE900166E0C39E4011DD
:10102B00E4F0800D900166E004F0E0C39F4002E421
:10103B00F0900028E090001EF0901F7793B408000A
:10104B00505D901054F828287302106C0210740233
:10105B00107C02108402108C02109402109C02105F
:10106B00A4439D0143C2018036439D0243C20280CB
:10107B002E439D0443C2048026439D0843C208802F
:10108B001E439D1043C2108016439D2043C22080F7
:10109B000E439D4043C2408006439D8043C28090D7
:1010AB000028E004F0900022E0FF701190001DE09A
:1010BB00FE900028E0C39E402CE4F080289000288E
:1010CB00E0FED39F500D900022E0FFEEC39F401532
:1010DB00E4800E90001DE0FFEEC39F4008900022BD
:1010EB00E0900028F053B67F53A1FC43A10853A115
:1010FB00EF9000FCE0B4081AE4F0900101E0F5CFAA
:10110B0090001EE0901F8793F5C6E4F5C59000ACE8
:10111B00801C9000FC7408F09000FEE0F5CF90006E
:10112B001EE0901F7F93F5C6E4F5C59000A9E0F58E
:10113B00CE53A1FB53B6DF43A180E4F50C00050CA5
:10114B00E50CB432F89000F97401F043A801E4F512
:10115B00C143A120900142E0600490001CF0E49098
:10116B000142F022C0A7C086E4F586F5A753A8FE7E
:10117B00AFC1AEB7F59DF5C253A8FE9000F9E06480
:10118B000160030212FBEF20E4030212F0EE600396
:10119B000212F09000AFE0FF900028E0FE6F703C71
:1011AB00900022E0FF70028005EEC39F4008900084
:1011BB00F97403F08026900002E0900028F0900074
:1011CB00AFF090000204F090001DE0FF900002E0F1
:1011DB00C39F4008900022E0900002F09000F9E0DD
:1011EB00640370030212FB900028E090001EF09045
:1011FB001F7793B40800505D90120AF828287302E9
:10120B00122202122A02123202123A021242021263
:10121B004A02125202125A439D0143C201803643C5
:10122B009D0243C202802E439D0443C20480264389
:10123B009D0843C208801E439D1043C21080164375
:10124B009D2043C220800E439D4043C240800643F5
:10125B009D8043C280900028E004F0900022E0FFC4
:10126B00701190001DE0FE900028E0C39E402CE41E
:10127B00F08028900028E0FED39F500D900022E0D4
:10128B00FFEEC39F4015E4800E90001DE0FFEEC300
:10129B009F4008900022E0900028F09000FCE0B402
:1012AB0008189000FEE0F5CF90001EE0901F7F9392
:1012BB00F5C6E4F5C59000A98016900101E0F5CFC5
:1012CB0090001EE0901F8793F5C6E4F5C59000AC27
:1012DB00E0F5CEE4FF000FBF32FB43A801E4F5C1FC
:1012EB0043A120800B9001427401F0E49000F9F0CF
:1012FB00D086D0A722121E7B0555E555C39404401A
:10130B0003E4F555E5556401705BEF901FCF93FE39
:10131B00C330E001D39280EEC330E101D392A4EF4E
:10132B00901FCF93FEC330E201D392A1EEC330E303
:10133B0001D39290EF901FCF93FEC330E401D39271
:10134B0083EEC330E501D392A3EF901FCF93FEC37F
:10135B0030E601D392A2EEC330E701D39291C2B42F
:10136B00D281D28222E5556402705BED901FCF9340
:10137B00FFC330E001D39280EFC330E101D392A4DD
:10138B00ED901FCF93FFC330E201D392A1EFC33097
:10139B00E301D39290ED901FCF93FFC330E401D3C1
:1013AB009283EFC330E501D392A3ED901FCF93FF50
:1013BB00C330E601D392A2EFC330E701D39291D2AF
:1013CB00B4C281D28222E5556403705AEB901FCFD1
:1013DB0093FFC330E001D39280EFC330E101D3928E
:1013EB00A4EB901FCF93FFC330E201D392A1EFC3C5
:1013FB0030E301D39290EB901FCF93FFC330E40106
:10140B00D39283EFC330E501D392A3EB901FCF931D
:10141B00FFC330E601D392A2EFC330E701D3929121
:10142B00D2B4D281C2822290001D7403F0E49000EA
:10143B0022F09000057402F09000FE7407F0E5CEE8
:10144B00543F4440F5CE9000A9F0E5CE54CF443044
:10145B00F5CE53CEF3E5CE54FC4403F5CE9001010B
:10146B00740EF0E5CE543F44C0F5CE9000ACF0E5E1
:10147B00CE54CF4430F5CE53CEF3E5CE54FC4403DB
:10148B00F5CEE49000B1F09000B204F09000B3F010
:10149B00E4F5B200000000FF90001DE0FEEFC39EDC
:1014AB005062EF901F7793B4080050559014BEF81C
:1014BB002828730214D60214DD0214E40214EB0282
:1014CB0014F20214F9021500021507C29743E280C9
:1014DB00802FC2A043E3018028C2A143E3028021F5
:1014EB00C2A243E304801AC2A343E3088013C2A43D
:1014FB0043E310800CC2A543E3208005C2A643E35F
:10150B00400F8094C2A743E38053908743E2785304
:10151B00B0DF43E4204386405390F043910F538652
:10152B00BF021E94E49000ADF0A3F0900026F0A350
:10153B00F09000F9F0900025F0900018F090001B4F
:10154B00F09000E6F09000F8F09000D4F09001439A
:10155B00F09000D5F0900145F09000FAF090000467
:10156B00F09000E7F09000FBF0A37408F0900003FC
:10157B00F0900144F0E4FF90001DE0FEEFC39E509D
:10158B0072AE07EF2408FDE433FCEED39DEC6480D0
:10159B00F8748098505AEE25E02402F582E4340169
:1015AB00F583E4F0A3F0EE25E02422F582E4340188
:1015BB00F583E4F0A3F0EE25E024B4F582E43400E7
:1015CB00F583E4F0A3F074D62EF582E43400F583B2
:1015DB00E4F074082EF582E43400F583E4F074E84B
:1015EB002EF582E43400F583E4F074082EFE80932C
:1015FB000F8084E4900142F090001CF0900166F0A3
:10160B00900022E0900002F022121D4D121DEA12F2
:10161B0014327B2C7A017DE87C037F01121E3E7B0A
:10162B00E87A037D7F7C007F01121E6B7B177D1791
:10163B007F17121E8D75B102E54EC3940F40F6E471
:10164B00F54E054CE54C940A4003E4F54C121E256F
:10165B00E54C24FE601E146027146044240370D5EF
:10166B00E4F593F591AB1CAA1BAD1AAC19AF221282
:10167B001A4180C1AF3AAE39121E0A121D8480B5D1
:10168B00E521640160AF121C8F8E4A8F4B121BCF6A
:10169B00AF4BAE4A12186F8E478F48121CD48095F1
:1016AB00D3E550943FE54F941F5006E54D64017010
:1016BB0084E4FBFD7F0A121E8DE4FBFAFDFCFF1296
:1016CB001E6BE4FBFAFDFCFF121E3EE4F50FFBFD67
:1016DB00FF121E56E5426401454160030216407538
:1016EB004D02021640A907121E84EDC330E001D350
:1016FB0092A3EDC330E101D392A2EDC330E201D34B
:10170B009291EDC330E301D39280EDC330E401D36A
:10171B0092A1EDC330E501D39290E97003D29222EE
:10172B00E9640170580535E53570020534EBAE02FE
:10173B007803C333CE33CED8F924FFFFEE34FFFE4C
:10174B00C3E5359FE5349E50320533E53370020512
:10175B0032C3943FE532941F4005E4F532F533C3B1
:10176B00E533949FE532940F5003C29222C3E533C5
:10177B00949FE532940F403DD292228032B90235CC
:10178B000535E53570020534EBF44A7003C292223D
:10179B00EBAE027803C333CE33CED8F924FFFFEE82
:1017AB0034FFFEC3E5359FE5349E5003C292228E73
:1017BB00348F35D29222BC000BBE0029EF8DF08402
:1017CB00FFADF022E4CCF875F008EF2FFFEE33FEFF
:1017DB00EC33FCEE9DEC984005FCEE9DFE0FD5F036
:1017EB00E9E4CEFD22EDF8F5F0EE8420D21CFEAD3F
:1017FB00F075F008EF2FFFED33FD4007985006D53D
:10180B00F0F222C398FD0FD5F0EA22C5F0F8A3E061
:10181B0028F0C5F0F8E582158270021583E038F0E8
:10182B0022EB9FF5F0EA9E42F0E99D42F0E89C45E1
:10183B00F022E8600FECC313FCED13FDEE13FEEF8B
:10184B0013FFD8F122E8600FEFC333FFEE33FEED49
:10185B0033FDEC33FCD8F122A42582F582E5F0357B
:10186B0083F583228E0C8F0DE4FFFE901E9B93F568
:10187B000E740193F50FD3901F09740193950DE42A
:10188B0093950C40047B378002E4FBD3E50D950F59
:10189B00E50C950E5018EB25E0249BF582E4341EE5
:1018AB00F583E493F50E740193F50F0B80DDEBD309
:1018BB00946540067E007F648049EB7004FEFF80D8
:1018CB0042EB25E02499F582E4341EF583E493FE84
:1018DB00740193FFEB25E02497F582E4341EF58326
:1018EB00C37401939FFDE4939EFCC3E50D9FFFE53D
:1018FB000C9EFE1217C1EB24FFFDE434FFCD2FFF2E
:10190B00ED3EFED3EF9464EE940040047E007F64C2
:10191B0022AC07A903EC2DFDE50B75F002A4FFAE7D
:10192B00F0C3E52C9FEE6480F87480984004E4F5D6
:10193B002C22C3E52C9FEE6480F8748098506A05C6
:10194B0029E52970020528ED75F008A424FFFFE5B1
:10195B00F034FFFEC3E5299FE5289E4007E4F528F8
:10196B00F529052CEC75F008A424FFFFE5F034FFF6
:10197B00FEC3E5299FE5289E5017E925E0FFE50BFF
:10198B0025E0C39FFFE52CC39F5003D2B622C2B6FE
:10199B0022ED75F008A424FFFFE5F034FFFEC3E54C
:1019AB00299FE5289E5002C2B622787FE4F6D8FD27
:1019BB007581550219FC021614E493A3F8E493A362
:1019CB004003F68001F208DFF48029E493A3F85476
:1019DB0007240CC8C333C4540F4420C8834004F4F9
:1019EB0056800146F6DFE4800B010204081020400C
:1019FB0080901B4FE47E019360BCA3FF543F30E506
:101A0B0009541FFEE493A360010ECF54C025E06080
:101A1B00A840B8E493A3FAE493A3F8E493A3C8C54E
:101A2B0082C8CAC583CAF0A3C8C582C8CAC583CA3F
:101A3B00DFE9DEE780BE8F0C8D828C83E521700998
:101A4B00E523C3950C50028070E52164017033438C
:101A5B00E4080520E5207002051FAE02AF037C00F1
:101A6B007D141217C1EF24FFFFEE34FFFEC3E520F8
:101A7B009FE51F9E404AE4F51FF52075210253E4B4
:101A8B00F722E52164027038051EE51E7002051D64
:101A9B00AE83AF827C007D141217C1EF24FFFFEEE3
:101AAB0034FFFEC3E51E9FE51D9E4014E4F51DF5B6
:101ABB001E0523E523950C500475210122E4F52125
:101ACB0022C0E0C0F0C083C082C0D075D000C0007F
:101ADB00C001C002C003C004C005C006C007758AA0
:101AEB00E3758BF7C28D054E0550E5507002054F1F
:101AFB00E521B40102B2B385260BAB27AD24AF258C
:101B0B0012191CE5517F0070027F018F51E5517056
:101B1B000FAB31AA30AD2EAC2DAF2F1216F08009C2
:101B2B00AB54AD53AF52121300D007D006D005D033
:101B3B0004D003D002D001D000D0D0D082D083D03B
:101B4B00F0D0E032015100014E00014C00014D007C
:101B5B00024F0000012100021D0000021F000001C6
:101B6B00230001220002190000021B000001550096
:101B7B0001520001530001540001440002410000D6
:101B8B00014300013E00023F0000024A00000149F0
:101B9B0000024700000245000002280000012C0053
:101BAB00022A000001250001240001270001260064
:101BBB000232000002340000012F00022D0000024F
:101BCB0030000000E4F9FDFCFBFAF582F5837008A8
:101BDB00AC06AD07AA06AB07D3EF9DEE9C4006AC57
:101BEB0006AD07800BC3EF9BEE9A5004AA06AB071A
:101BFB00EF2582F582EE3583F58309E9C3940A401C
:101C0B0022E4F9E5829DFFE5839CCFC39BCF9AFE2F
:101C1B00EF7803CEC313CE13D8F9F54B8E4AE4F508
:101C2B0083F58222121DBA8E398F3AE53D701CF571
:101C3B003BF53C0538E53870020537C394B4E537FE
:101C4B009400403BE4F537F5388021E53A4539609F
:101C5B0025E4F537F538053CE53C7002053BC394AC
:101C6B0010E53B940E4018E4F53BF53C121E94E452
:101C7B00F539F53A8009E4F53BF53CF537F538AE27
:101C8B0039AF3A227F64E4FDFC53E4F7F593759486
:101C9B00EFF595759188759397E59330E00CAE074A
:101CAB001FEE60060075B10280EFAF977C00AD07A9
:101CBB00EDC4F8540FC868FDECC454F048FCAF9663
:101CCB00EF2DFDE43CFEAF0522EFB54609EEB54521
:101CDB0005E4F549802CC3EF9546EE9545400E5330
:101CEB00490F0549E549D3940A4017800E5349F033
:101CFB0074102549F549D394A04007E4F5498E4764
:101D0B008F488E458F4622C0E0C0F0C083C082C092
:101D1B00D075D000C000C001C002C003C004C00514
:101D2B00C006C00712116FD007D006D005D004D063
:101D3B0003D002D001D000D0D0D082D083D0F0D04D
:101D4B00E032E4F586C2AFF5B275B10275E1FFF58D
:101D5B00E9F580D281D28275E2FFF5EAF590D29255
:101D6B0075D90575EF0275E39FF5EBF5A075E4FFEB
:101D7B00F5ECF5B0D2B4D2AF22E5424541600FE5A8
:101D8B0040453F7009F54385413F85424022E5427E
:101D9B00B5400FE541B53F0AE543C394FE500F052F
:101DAB004322E54245417006F543F53FF540227568
:101DBB003D019000ADE0FEA3E0FFEE701AEF24FBB7
:101DCB00501424F5601024F0600C24E0600824C04B
:101DDB0060042478700122E4F53D7EFF7FFF2243EF
:101DEB008901758F04758AE3758BF7C28DD28CD2FE
:101DFB00A9D2AF75B80275B402E4F5B9F5B522E412
:101E0B00F541F542EF30E003434201EF30E103438C
:101E1B004202EF30E203434204220536E536C39417
:101E2B00064009E4F536121C2F020EE212000E12C8
:101E3B00000E22E4F523F521F51FF520F51DF51E07
:101E4B008F228A1B8B1C8C198D1A22E4F528F529FD
:101E5B00F52CF52AF52B8F258D248B27850F262224
:101E6B00E4F532F5338F2F8C2D8D2E8A308B31226A
:101E7B00D292D2B4D281D28222D292D2B4D281D295
:101E8B0082228F528D538B54229000AA7401F02220
:101E9B000E930E820E700E5D0E4A0E360E220E0D36
:101EAB000DF70DE10DCA0DB20D9A0D810D670D4D9C
:101EBB000D320D160CFA0CDD0CBF0CA10C820C6351
:101ECB000C430C220C010BDF0BBD0B9A0B770B5445
:101EDB000B300B0B0AE60AC10A9C0A760A500A2A37
:101EEB000A0309DC09B6098F09680941091908F2C7
:101EFB0008CB08A4087D08560830080907E307BD7E
:101F0B0007970771074C0727070206DE06BA0696E6
:101F1B0006730650062E060C05EB05CA05A90589A6
:101F2B00056A054B052C050E04F104D404B8049C7A
:101F3B0004800465044B0431041803FF03E703CF4B
:101F4B0003B803A1038A0375035F034A0336032215
:101F5B00030F02FC02E902D702C502B402A30293EB
:101F6B000282027302630255024602380001060028
:101F7B000000000003030303030303030303030332
:101F8B000303030301F401F401F401F401F401F47C
:101F9B0001F401F401F401F401F401F401F401F48E
:101FAB0001F401F403E803E803E803E803E803E8BA
:101FBB0003E803E803E803E803E803E803E803E8BE
:101FCB0003E803E83F065B4F666D7D077F6FBF86B7
:0C1FDB00DBCFE6EDFD87FFEF393E00FF95
:00000001FF
