:08000000021CCF021FA4222202
:10000B00021DE6900025E0FE700690001CE0FF222A
:10001B00EE14FF900003E02FF50C25E02458F58239
:10002B00E43422F583E493FC740193FDAE0478026F
:10003B00CEC313CE13D8F9FF900019EEF0A3EFF057
:10004B00EDAE047802C333CE33CED8F9FF7C007DFE
:10005B000A121AFB900000EEF0A3EFF0900000E004
:10006B00FEA3E07803CEC313CE13D8F9FF90001F85
:10007B00EEF0A3EFF0E50C25E024B4F582E43400B8
:10008B00F583E0F50FA3E0F51054079000B0F0E511
:10009B0010AE0F7803CEC313CE13D8F9F5108E0F15
:1000AB0054079000ABF0E5107803CEC313CE13D8F2
:1000BB00F9F5108E0F54019000FFF0E50FC313F507
:1000CB000FE51013F510540FA3F0E50FC4F854F01F
:1000DB00C868F50FE510C4540F48F510540F900085
:1000EB00FDF0900018E07003020B6690001BE070AF
:1000FB0003020B66E50C75F008A42429F582E434A1
:10010B0000F583C083C0829000FAE0D082D0837563
:10011B00F002121B9DE0F50FA3E0F5109000B1E08B
:10012B00607CE50C25E02402F582E43401F583E0E4
:10013B00FEA3E0FFC39510EE950F5025C3E5109F6E
:10014B00FFE50F9EFED390001AE09F900019E09EF2
:10015B00500F900006E004F0E0C39403400302024A
:10016B0007E50C25E02402F582E43401F583E0FE7B
:10017B00A3E0FFD39510EE950F4023EF9510FFEE04
:10018B00950FFED390001AE09F900019E09E500E41
:10019B00900007E004F0E0C394034002805E9000FF
:1001AB00B2E06072E50C25E02402F582E43401F53F
:1001BB0083E0FEA3E0FFD39510EE950F404BEF9538
:1001CB0010FFEE950FFEE50C25E02458F582E43484
:1001DB0022F583D37401939FE4939E502C740825CE
:1001EB000CF582E43400F583E004F07408250CF57B
:1001FB0082E43400F583E0C39464401AE490002554
:10020B00F09000AA04F07FFF227408250CF582E41D
:10021B003400F583E4F0E50C25E02402F582E434A8
:10022B0001F583E0FEA3E0FF900000E0FCA3E0FDFE
:10023B00EF2DFFEE3CFEE50C25E02458F582E4346F
:10024B0022F5837401932FFFE4933EFED3E5109FB9
:10025B00E50F9E40028045E50C25E02402F582E483
:10026B003401F583E0FEA3E0FF900000E0FCA3E087
:10027B00FDC3EF9DFFEE9CFEE50C25E02458F582B7
:10028B00E43422F583E493FC740193FDC3EF9DFFEB
:10029B00EE9CFEC3E5109FE50F9E50048E0F8F1052
:1002AB00E50C75F008A42429F582E43400F583C02D
:1002BB0083C0829000FAE0D082D08375F002121BCB
:1002CB009DE50FF0A3E510F0E4F514F513F512F529
:1002DB0011F50DE50C75F008A42429F582E4340022
:1002EB00F58375F002E50D121B9DE0FEA3E0FFE424
:1002FB00FCFDE5142FF514E5133EF513ED3512F562
:10030B0012EC3511F511050DE50DB404C6AF14AEA5
:10031B0013AD12AC117802121B778F148E138D1242
:10032B008C11900023EEF0A3EFF0E50C25E02422D6
:10033B00F582E43401F583E0FCA3E0FD900019E0C5
:10034B00FAA3E0FBC3ED9BFDEC9ACD24ECCD34FF7F
:10035B00FCC3EF9DEE9C503DE50C25E02422F5827D
:10036B00E43401F583E0FEA3E024F6FFEE34FF90C6
:10037B000023F0A3EFF0900003E0FF900144E0B501
:10038B00070DB40804E4F080069001447408F09063
:10039B0000E77401F0E50C25E02422F582E434013A
:1003AB00F583E0FEA3E0FF2BFDEE3ACD2414CD3414
:1003BB0000FCD3900024E09D900023E09C4029EFAB
:1003CB00240AFFE43EF0A3EFF0900003E0FF90015E
:1003DB0044E0B5070DB40804E4F0800690014474C2
:1003EB0008F09000E77401F09000FAE0F50EE50CD0
:1003FB0075F008A42429F582E43400F58375F00226
:10040B00E50E121B9DE0FEA3E0FFE48F148E13F5A7
:10041B0012F511150EE50ED394034003750E03E58B
:10042B000C75F008A42429F582E43400F58375F0EB
:10043B0002E50E121B9DE0FEA3E0FFE4FCFD78013C
:10044B00121B8A8F188E178D168C15150EE50ED371
:10045B0094034003750E03E50C75F008A42429F5ED
:10046B0082E43400F58375F002E50E121B9DE0FE6D
:10047B00A3E0FFE4FCFDE5142FF514E5133EF513A3
:10048B00ED3512F512EC3511F511AF18AE17AD169F
:10049B00AC15AB14AA13A912F8D3121B66401AE5BC
:1004AB00149518F514E5139517F513E5129516F534
:1004BB0012E5119515F5118019C3E5189514F5146E
:1004CB00E5179513F513E5169512F512E51595112C
:1004DB00F511E50C25E02458F582E43422F583E48C
:1004EB0093FE740193FFE4FCFDAB14AA13A912A8AD
:1004FB0011D3121B66401F900003E0FF900144E0F4
:10050B00B5070DB40804E4F080069001447408F0BC
:10051B009000E77401F0900001E024F6FF900000DA
:10052B00E034FFFE90001FE0FCA3E0FDC3EF9DFF56
:10053B00EE9CFEEF7803CEC313CE13D8F9FFE50C78
:10054B0025E02422F582E43401F583E0FCA3E02FBF
:10055B00FFEC3EFE900023E0FCA3E0FDC39FEC9E6E
:10056B00500A9000B0E0601A14F080169000B0E0D2
:10057B0004F0900005E004FF9000B0E0D39F400230
:10058B00EFF0E50C25E02402F582E43401F583E07D
:10059B00FEA3E0FFD3ED9FEC9E5003020843E490D3
:1005AB000100F0900023E0FCA3E0FD9FF510EC9E12
:1005BB00F50FC3900001E09510900000E0950F40FF
:1005CB00030206FCE49000FDF0900004E0C39418D5
:1005DB0040030206F4A3E0F99000ABE0C39940039B
:1005EB000206EC9000FBE064017043E50C25E0246F
:1005FB0022F582E43401F583E0FEA3E0FF240AFB3D
:10060B00E43EFAD3ED9BEC9A401D900019E0FCA35D
:10061B00E0FDEF2DFFEE3CFEC3900024E09F900029
:10062B0023E09E50028007E49000ABF08006900020
:10063B00ABE004F0E914FF9000ABE0D39F50030252
:10064B0006DC9000B0E0940240030206DA9000ABA7
:10065B00EFF0E4900004F074D6250CF582E434003E
:10066B00F583E0C394804059E50C25E02422F58204
:10067B00E43401F583E0FEA3E0FF24F6FDEE34FF46
:10068B00FC900023E0FAA3E0FBD39DEA9C4042EFF1
:10069B00240AFFE43EFEC3EB9FEA9E503490001FFA
:1006AB00E0FEA3E0FFC3EB9FFFEA9EFEE50C25E017
:1006BB002402F582E43401F583EEF0A3EFF0020A95
:1006CB004F74D6250CF582E43400F583020835808F
:1006DB000074D6250CF582E43400F583E4F0020AAD
:1006EB004F9000ABE9F0020A4FE49000ABF0020A26
:1006FB004FE49000ABF074D6250CF582E43400F592
:10070B0083E004F0E50C25E02422F582E43401F5C6
:10071B0083E0FEA3E0FF240CFDE43EFCD390002419
:10072B00E09D900023E09C4005E49000FDF074D622
:10073B00250CF582E43400F583E0C39420500302CA
:10074B000A4F900004E0F97048EF24F6FFEE34FFF7
:10075B00FE900023E0FCA3E0FDD39FEC9E4032E52E
:10076B000C25E02422F582E43401F583E0FEA3E0BE
:10077B00240AFFE43EFEC3ED9FEC9E5014E50C25CE
:10078B00E02402F582E43401F583E475F001121BD9
:10079B005074D6250CF582E43400F583E4F0900018
:1007AB0000E0FEA3E07802CEC313CE13D8F9FFD33B
:1007BB00E5109FE50F9E4078900005E02401FFE4D3
:1007CB0033FE9000FDE06F7001EE705BE97061E548
:1007DB000C25E02422F582E43401F583E0FEA3E04E
:1007EB00FF24F6FDEE34FFFC900023E0FAA3E0FBC0
:1007FB00D39DEA9C403AEF240AFFE43EFEC3EB9FF5
:10080B00EA9E502C90001FE0FEA3E0FFC3EB9FFF7E
:10081B00EA9EFEE50C25E02402F582E43401F58323
:10082B00EEF0A3EFF080099000FDE004F0020A4F18
:10083B00E49000FDF0020A4FE49000ABF09000FD55
:10084B00F0E50C25E02402F582E43401F583E0FEAB
:10085B00A3E0FF900000E0FCA3E0FDC3EF9DFFEEE3
:10086B009CFE900023E0FCA3E0FDC39FEC9E4003A5
:10087B000209B0900005E02401FFE433FE90010073
:10088B00E0C39FEE6480F87480984003020963E52F
:10089B000C25E02422F582E43401F583E0FEA3E08D
:1008AB0024F6FFEE34FFFEC3ED9FEC9E503CE50CAF
:1008BB0025E02422F582E43401F583E0FEA3E0FF7A
:1008CB00900019E0FCA3E0FDC3EF9DFFEE9CCF244D
:1008DB00ECCF34FFFED3900024E09F900023E09EEA
:1008EB004008900100E004F08077E4900100F09064
:1008FB000004E0706CE50C25E02422F582E4340161
:10090B00F583E0FEA3E0FF24F6FDEE34FFFC900040
:10091B0023E0FAA3E0FBD39DEA9C4045EF240AFFBA
:10092B00E43EFEC3EB9FEA9E5037E50C25E0240224
:10093B00F582E43401F583C083C082E0FEA3E0FFBF
:10094B0090001FE0FCA3E0FDC3EF9DFFEE9CD08267
:10095B00D083F0A3EFF08009900005E00490010034
:10096B00F0900005E0FF900100E0D39F5003020AD6
:10097B004F900004E0702690001FE0FEA3E0FF9074
:10098B000024E09FFF900023E09EFEE50C25E02471
:10099B0002F582E43401F583EEF0A3EFF0E490016D
:1009AB0000F0020A4FE4900100F074D6250CF5829A
:1009BB00E43400F583E004F074D6250CF582E434BE
:1009CB0000F583E0FF64016006EFC394204075904F
:1009DB000004E07061E50C25E02422F582E434018B
:1009EB00F583E0FEA3E0FF24F6FDEE34FFFC900060
:1009FB0023E0FAA3E0FBD39DEA9C403AEF240AFFE5
:100A0B00E43EFEC3EB9FEA9E502CE50C25E024024E
:100A1B00F582E43401F583C083C082E0FEA3E0FFDE
:100A2B0090001FE0FCA3E0FDC3EF9DFFEE9CD08286
:100A3B00D083F0A3EFF074D6250CF582E43400F5E7
:100A4B00837401F0900023E0FEA3E0FFE50C25E0AA
:100A5B002422F582E43401F583EEF0A3EFF090004D
:100A6B0005E014FF9000ABE0FED39F40089000FF21
:100A7B007401F08007EE70049000FFF09000B3E07B
:100A8B007003020B66E50C25E02478F582E4342232
:100A9B00F583E493FE740193FFE50C25E02402F546
:100AAB0082E43401F583E0FCA3E02FFFEC3EFEE58E
:100ABB000C25E02446F582E43401F583E0FCA3E049
:100ACB00D39FEC9E5003020B5974E8250CF582E47E
:100ADB003400F583E0C394FF500E74E8250CF582C7
:100AEB00E43400F583E004F0E50CC39408501F7464
:100AFB00017E00A80C088005C333CE33CED8F9FF96
:100B0B00900026E05EFEA3E05F4E60378022E50C8E
:100B1B0024F8FF74017E00A807088005C333CE3389
:100B2B00CED8F9FF900026E05EFEA3E05F4E601387
:100B3B00E49000ABF09000FFF09000B0F090000458
:100B4B007430F074D6250CF582E43400800974E817
:100B5B00250CF582E43400F583E4F09000FDE0759C
:100B6B000F00F510E510C4F8540FC868F510E50F29
:100B7B00C454F048F50F900100E02510F510E43552
:100B8B000FF50FE51025E0F510E50F33F50F90008D
:100B9B00FFE02510F510E4350FF50FE510AE0F78DB
:100BAB0003C333CE33CED8F9F5108E0F9000ABE0E4
:100BBB002510F510E4350FF50FE510AE0F7803C3D4
:100BCB0033CE33CED8F9F5108E0F9000B0E0251050
:100BDB00F510E4350FF50FE50C25E024B4F582E4B0
:100BEB003400F583E50FF0A3E510F0900025E01439
:100BFB00F0E06003020ED7900018E0600990001B34
:100C0B00E06003020D86900003E064086003020CB1
:100C1B00D19000E6E004F0E0C394085003020E8F7D
:100C2B009000187401F0E49000E6F0F50E90001DB2
:100C3B00E0FFE50EC39F4003020E8F900003E025FB
:100C4B000EF50CE4F514F513F512F511F50DE50C95
:100C5B0075F008A42429F582E43400F58375F002BD
:100C6B00E50D121B9DE0FEA3E0FFE4FCFDE5142F58
:100C7B00F514E5133EF513ED3512F512EC3511F5C0
:100C8B0011050DE50DB404C6AF14AE13AD12AC11C6
:100C9B007802121B778F148E138D128C11E50C2595
:100CAB00E02402F582E43401F583EEF0A3EFF0E5E6
:100CBB000C25E02422F582E43401F583EEF0A3EF5A
:100CCB00F0050E020C389000F8E004F0E0C3940835
:100CDB005003020E8F90001B7401F0E49000F8F0AB
:100CEB00F50E90001DE0FFE50EC39F4003020E8F33
:100CFB00900003E0250EF50CE4F514F513F512F551
:100D0B0011F50DE50C75F008A42429F582E43400E7
:100D1B00F58375F002E50D121B9DE0FEA3E0FFE4E9
:100D2B00FCFDE5142FF514E5133EF513ED3512F527
:100D3B0012EC3511F511050DE50DB404C6AF14AE6B
:100D4B0013AD12AC117802121B778F148E138D1208
:100D5B008C11E50C25E02402F582E43401F583EED9
:100D6B00F0A3EFF0E50C25E02422F582E43401F545
:100D7B0083EEF0A3EFF0050E020CED900003E0FF05
:100D8B00900144E06F704B9000ADF0A3F0F50EF5C1
:100D9B000F75100190001DE0FFE50EC39F503390BF
:100DAB000003E0250EF50C25E024B4F582E43400B5
:100DBB00F583A3E030E60C9000ADE0450FF0A3E027
:100DCB004510F0050EE5102510F510E50F33F50F66
:100DDB0080C29000B3E07003020E8FE4900021F00C
:100DEB00F50EF50F75100190001DE0FFE50EC39F8A
:100DFB004003020E7D74E8250EF582E43400F58382
:100E0B00E0FF900005E0FEEFC39E402474F0250E3A
:100E1B00F582E43400F583E0C39E40149000217406
:100E2B0001F0900026E0450FF0A3E04510F0803272
:100E3B00900026E0FEA3E0FFE50F5EFCE5105F4CA3
:100E4B006020E510F4FDE50FF4FCEE5CFEEF5DFFBA
:100E5B00900026EEF0A3EFF09000ADE05CF0A3E085
:100E6B005DF0050EE5102510F510E50F33F50F02BB
:100E7B000DF2900026E0FEA3E0FF9000ADE04EF0F7
:100E8B00A3E04FF09000FAE004F0E0D394034002AB
:100E9B00E4F0900004E0600214F09000E7E06006DC
:100EAB009000047430F0900003E09000FAB4080F47
:100EBB00E09000D4F0900004E0900143F0800DE04E
:100ECB009000D5F0900004E0900145F090001CE0FC
:100EDB00F50CE4F0AF0C2253A8FEE4F59DF5C2F53A
:100EEB00C3F5C4F5C5F5C6F5CFF5B6F5CEF5A1F549
:100EFB00C1900025E060069001427403F0E490007D
:100F0B0025F09000AAE06008121796E49000AAF072
:100F1B009000F9E064036003020FF89000FCE0FF1F
:100F2B00900003F0BF080D9000D4E09000FAF09011
:100F3B000143800B9000D5E09000FAF0900145E062
:100F4B00900004F0900004E0D3940040089000FB64
:100F5B007401F08005E49000FBF0E49000E7F0F5FD
:100F6B000D90001DE0FFE50DC39F5070900003E056
:100F7B00250DF50C7D007C05E50D90224093FF7E41
:100F8B00002DFDEE3CFCEF2DFDEE3CFC8D82F58340
:100F9B00A3E0FE8D828C83E07C002400FDEC3EFC04
:100FAB00E50C25E02446F582E43401F583ECF0A34F
:100FBB00EDF0E50C75F008A42429F582E43400F576
:100FCB0083C083C0829000FAE0D082D08375F00298
:100FDB00121B9DECF0A3EDF0050D808590001DE03C
:100FEB00900025F0E4900006F0A3F0800D9000F93E
:100FFB00E0B401069001427402F0900166E09000AB
:10100B0028F09000AFF0900022E0FF70179001667F
:10101B00E004F090001DE0FE900166E0C39E4011DD
:10102B00E4F0800D900166E004F0E0C39F4002E421
:10103B00F0900028E090001EF090224093B408003E
:10104B00505D901054F828287302106C0210740233
:10105B00107C02108402108C02109402109C02105F
:10106B00A4439D0143C2018036439D0243C20280CB
:10107B002E439D0443C2048026439D0843C208802F
:10108B001E439D1043C2108016439D2043C22080F7
:10109B000E439D4043C2408006439D8043C28090D7
:1010AB000028E004F0900022E0FF701190001DE09A
:1010BB00FE900028E0C39E402CE4F080289000288E
:1010CB00E0FED39F500D900022E0FFEEC39F401532
:1010DB00E4800E90001DE0FFEEC39F4008900022BD
:1010EB00E0900028F053B67F53A1FC43A10853A115
:1010FB00EF9000FCE0B4081AE4F0900101E0F5CFAA
:10110B0090001EE090225093F5C6E4F5C59000AC1C
:10111B00801C9000FC7408F09000FEE0F5CF90006E
:10112B001EE090224893F5C6E4F5C59000A9E0F5C2
:10113B00CE53A1FB53B6DF43A180E4F50C00050CA5
:10114B00E50CB432F89000F97401F043A801E4F512
:10115B00C143A120900142E0600490001CF0E49098
:10116B000142F022C0A7C086E4F586F5A753A8FE7E
:10117B00AFC1AEB7F59DF5C253A8FE9000F9E06480
:10118B000160030212FBEF20E4030212F0EE600396
:10119B000212F09000AFE0FF900028E0FE6F703C71
:1011AB00900022E0FF70028005EEC39F4008900084
:1011BB00F97403F08026900002E0900028F0900074
:1011CB00AFF090000204F090001DE0FF900002E0F1
:1011DB00C39F4008900022E0900002F09000F9E0DD
:1011EB00640370030212FB900028E090001EF09045
:1011FB00224093B40800505D90120AF8282873021D
:10120B00122202122A02123202123A021242021263
:10121B004A02125202125A439D0143C201803643C5
:10122B009D0243C202802E439D0443C20480264389
:10123B009D0843C208801E439D1043C21080164375
:10124B009D2043C220800E439D4043C240800643F5
:10125B009D8043C280900028E004F0900022E0FFC4
:10126B00701190001DE0FE900028E0C39E402CE41E
:10127B00F08028900028E0FED39F500D900022E0D4
:10128B00FFEEC39F4015E4800E90001DE0FFEEC300
:10129B009F4008900022E0900028F09000FCE0B402
:1012AB0008189000FEE0F5CF90001EE090224893C6
:1012BB00F5C6E4F5C59000A98016900101E0F5CFC5
:1012CB0090001EE090225093F5C6E4F5C59000AC5B
:1012DB00E0F5CEE4FF000FBF32FB43A801E4F5C1FC
:1012EB0043A120800B9001427401F0E49000F9F0CF
:1012FB00D086D0A7220525E525C394324003E4F51B
:10130B0025E52E64017003021480C3E5589450E563
:10131B00579400401BE523604CE52060067E007F60
:10132B006480047E027FC5C3E5589FE5579E503508
:10133B00051CE51CD394195003021480E4F51C75AD
:10134B002301751F03E525941950087B01E4FD7FEC
:10135B001580067B177D177F17122156E519700331
:10136B000214808065E51FB40515C3E5589464E548
:10137B00579400500AE5589450E55794005019E5DE
:10138B0020604CD3E5589450E55794004041E55804
:10139B0094C5E55794025037051CE51CD39419509E
:1013AB0003021480E4F51C752001751F03E52594D9
:1013BB00195007E4FBFD7F1580067B177D177F1700
:1013CB00122156E5197003021480E4F5198061D3DC
:1013DB00E558947DE557940F5018E5246070E55857
:1013EB0094CAE557940D4066E558947DE557940FE4
:1013FB00505C051CE51CD39419407AE4F51C75244C
:10140B0001751F03E52594195007E4FBFD7F0A8046
:10141B000DE525C3941940097B177D177F17122102
:10142B0056E5196050E4F519FBFD7F0A122156E4CD
:10143B00FBFAFDFCFF1221347B2C7A017D2C7C0105
:10144B007F03122107E4F50FFBFDFF02211FE51FB0
:10145B00B40322D3E55894C5E55794024017E558D9
:10146B0094CAE557940D500DE4F524F523F520753A
:10147B001901751F0122122144055CE55CC394041C
:10148B004003E4F55CE55C6401705BEF902298939C
:10149B00FEC330E001D39280EEC330E101D392A4BE
:1014AB00EF90229893FEC330E201D392A1EEC330AA
:1014BB00E301D39290EF90229893FEC330E401D3D3
:1014CB009283EEC330E501D392A3EF90229893FE63
:1014DB00C330E601D392A2EEC330E701D39291C29F
:1014EB00B4D281D28222E55C6402705BED902298CB
:1014FB0093FFC330E001D39280EFC330E101D3926D
:10150B00A4ED90229893FFC330E201D392A1EFC3D5
:10151B0030E301D39290ED90229893FFC330E40116
:10152B00D39283EFC330E501D392A3ED902298932E
:10153B00FFC330E601D392A2EFC330E701D3929100
:10154B00D2B4C281D28222E55C6403705AEB902242
:10155B009893FFC330E001D39280EFC330E101D306
:10156B0092A4EB90229893FFC330E201D392A1EFA8
:10157B00C330E301D39290EB90229893FFC330E4F6
:10158B0001D39283EFC330E501D392A3EB90229862
:10159B0093FFC330E601D392A2EFC330E701D3929E
:1015AB0091D2B4D281C2822290001D7403F0E490D8
:1015BB000022F09000057402F09000FE7407F0E535
:1015CB00CE543F4440F5CE9000A9F0E5CE54CF4425
:1015DB0030F5CE53CEF3E5CE54FC4403F5CE90015B
:1015EB0001740EF0E5CE543F44C0F5CE9000ACF044
:1015FB00E5CE54CF4430F5CE53CEF3E5CE54FC4478
:10160B0003F5CEE49000B1F09000B204F09000B37B
:10161B00F0E4F5B200000000FF90001DE0FEEFC308
:10162B009E5062EF90224093B40800505590163FA5
:10163B00F828287302165702165E02166502166CFE
:10164B0002167302167A021681021688C29743E2BB
:10165B0080802FC2A043E3018028C2A143E3028014
:10166B0021C2A243E304801AC2A343E3088013C23E
:10167B00A443E310800CC2A543E3208005C2A6431C
:10168B00E3400F8094C2A743E38053908743E278F3
:10169B0053B0DF43E4204386405390F043910F5304
:1016AB0086BF02215D015F00015E00015D00012E1E
:1016BB0000022A0000022C0000013000012F000262
:1016CB0026000002280000015C00015900015A00AD
:1016DB00015B00015100024E0000015000014B0064
:1016EB00024C000002570000015600025400000299
:1016FB0052000002350000013900023700000132B0
:10170B0000013100013400013300023F00000241AF
:10171B000000013C00023A0000023D0000012100E4
:10172B00011A00011B00011F01012300012400010C
:10173B002000011901012500011C00011D00011EE3
:10174B000001220060420167000A00000000000B4C
:10175B0000010001000C00020002000D0003000359
:10176B00000E00040004000F000500050010000629
:10177B000006001100070007001200080008001304
:10178B000009000900160000000000E49000ADF015
:10179B00A3F0900026F0A3F09000F9F0900025F054
:1017AB00900018F090001BF09000E6F09000F8F01D
:1017BB009000D4F0900143F09000D5F0900145F0EB
:1017CB009000FAF0900004F09000E7F09000FBF02E
:1017DB00A37408F0900003F0900144F0E4FF900034
:1017EB001DE0FEEFC39E5072AE07EF2408FDE433FD
:1017FB00FCEED39DEC6480F8748098505AEE25E093
:10180B002402F582E43401F583E4F0A3F0EE25E045
:10181B002422F582E43401F583E4F0A3F0EE25E015
:10182B0024B4F582E43400F583E4F0A3F074D62EEF
:10183B00F582E43400F583E4F074082EF582E43489
:10184B0000F583E4F074E82EF582E43400F583E4CC
:10185B00F074082EFE80930F8084E4900142F09088
:10186B00001CF0900166F0900022E0900002F02244
:10187B00121FDF1220B31215B37B2C7A017DE87C8B
:10188B00037F011221077BE87A037D7F7C007F02B7
:10189B001221347B187D187F1812215675B102E581
:1018AB005EC3940F40F6E4F55E055DE55D940A407A
:1018BB0003E4F55D1220EEE52E64016007121F2193
:1018CB008E578F58E55D14B4080050D09018E5750D
:1018DB00F003A4C58325F0C583730218FD0219110B
:1018EB0002191D02193502193B021941021947024F
:1018FB00194DE4F593F591AB29AA28AD27AC26AF8A
:10190B002F121D5B8096AF47AE461220D312204D8F
:10191B00808AAF58AE57121E61AF58AE57121C4299
:10192B008E548F55121F660218A71220160218A785
:10193B001219530218A71213000218A7120006025D
:10194B0018A71200070218A7E51F64037003021AF9
:10195B0029051BE51BC394C75035E54F6403454E62
:10196B007030751F02E550644E70277B64FA7D64FE
:10197B00FC7F02122107750F0AE4FB7D067F041220
:10198B00211FE4FBFD7F0A1221567521018003758F
:10199B001BC8E5217003021A290522E522D39431D5
:1019AB00407CE4F522051EE51E940B5038E51E75B0
:1019BB00F006A42467F582E43401F583A3E0FFE588
:1019CB001E75F006A42469F582E43401F583A3E0C7
:1019DB00FDE51E75F006A4246BF582E43401F58356
:1019EB00A3E0FB802EE51E640B702BAE54AF55FCB1
:1019FB007D0A121AFB7C007D0A121AFBAF05C00789
:101A0B00AE54AF557C007D0A121AFBED240AFDD0B3
:101A1B00077B14022156E4F51E751F01F52122A93F
:101A2B000712214DEDC330E001D392A3EDC330E19A
:101A3B0001D392A2EDC330E201D39291EDC330E317
:101A4B0001D39280EDC330E401D392A1EDC330E515
:101A5B0001D39290E97003D29222E9640170580588
:101A6B0042E54270020541EBAE027803C333CE333D
:101A7B00CED8F924FFFFEE34FFFEC3E5429FE541CC
:101A8B009E50320540E5407002053FC3943FE53F51
:101A9B00941F4005E4F53FF540C3E540949FE53FB7
:101AAB00940F5003C29222C3E540949FE53F940FDD
:101ABB00403DD292228032B902350542E542700296
:101ACB000541EBF44A7003C29222EBAE027803C3DA
:101ADB0033CE33CED8F924FFFFEE34FFFEC3E542FD
:101AEB009FE5419E5003C292228E418F42D2922299
:101AFB00BC000BBE0029EF8DF084FFADF022E4CCCF
:101B0B00F875F008EF2FFFEE33FEEC33FCEE9DEC97
:101B1B00984005FCEE9DFE0FD5F0E9E4CEFD22EDDD
:101B2B00F8F5F0EE8420D21CFEADF075F008EF2F27
:101B3B00FFED33FD4007985006D5F0F222C398FD18
:101B4B000FD5F0EA22C5F0F8A3E028F0C5F0F8E5D0
:101B5B0082158270021583E038F022EB9FF5F0EAD4
:101B6B009E42F0E99D42F0E89C45F022E8600FECC4
:101B7B00C313FCED13FDEE13FEEF13FFD8F122E8B8
:101B8B00600FEFC333FFEE33FEED33FDEC33FCD8C8
:101B9B00F122A42582F582E5F03583F58322AC078B
:101BAB00A903EC2DFDE50B75F002A4FFAEF0C3E528
:101BBB00399FEE6480F87480984004E4F53922C3B1
:101BCB00E5399FEE6480F8748098506A0536E536E7
:101BDB0070020535ED75F008A424FFFFE5F034FF26
:101BEB00FEC3E5369FE5359E4007E4F535F5360532
:101BFB0039EC75F008A424FFFFE5F034FFFEC3E5D4
:101C0B00369FE5359E5017E925E0FFE50B25E0C330
:101C1B009FFFE539C39F5003D2B622C2B622ED75A2
:101C2B00F008A424FFFFE5F034FFFEC3E5369FE583
:101C3B00359E5002C2B6228E0C8F0DE4FDFC902116
:101C4B006493F50E740193F50F90223EE493FA74AE
:101C5B000193FBD3950DEA950C40048A0C8B0DD3A5
:101C6B009021D2740193950DE493950C40047F372A
:101C7B008002E4FFD3E50D950FE50C950E5018EFA0
:101C8B0025E02464F582E43421F583E493F50E74A6
:101C9B000193F50F0F80DDEFD3946540067C007D3B
:101CAB0064800FEF7004FCFD8008EF24FFFDE4342B
:101CBB00FFFCD3ED9464EC940040047C007D64AE97
:101CCB0004AF0522787FE4F6D8FD75815F021D16FF
:101CDB0002187BE493A3F8E493A34003F68001F28C
:101CEB0008DFF48029E493A3F85407240CC8C3330A
:101CFB00C4540F4420C8834004F456800146F6DFD9
:101D0B00E4800B01020408102040809016B0E47EA2
:101D1B00019360BCA3FF543F30E509541FFEE493CD
:101D2B00A360010ECF54C025E060A840B8E493A394
:101D3B00FAE493A3F8E493A3C8C582C8CAC583CABF
:101D4B00F0A3C8C582C8CAC583CADFE9DEE780BE77
:101D5B008F0C8D828C83E52E7009E530C3950C506A
:101D6B00028070E52E6401703343E408052DE52DE8
:101D7B007002052CAE02AF037C007D14121AFBEF30
:101D8B0024FFFFEE34FFFEC3E52D9FE52C9E404A5A
:101D9B00E4F52CF52D752E0253E4F722E52E6402A3
:101DAB007038052BE52B7002052AAE83AF827C00C1
:101DBB007D14121AFBEF24FFFFEE34FFFEC3E52B5D
:101DCB009FE52A9E4014E4F52AF52B0530E5309566
:101DDB000C5004752E0122E4F52E22C0E0C0F0C099
:101DEB0083C082C0D075D000C000C001C002C00348
:101DFB00C004C005C006C007758AE3758BF7C28D9A
:101E0B00055EE52EB40102B2B385330BAB34AD31B5
:101E1B00AF32121BA9E55F7F0070027F018F5FE578
:101E2B005F700FAB3EAA3DAD3BAC3AAF3C121A2AEA
:101E3B008009AB5BAD5AAF59121481D007D006D0D5
:101E4B0005D004D003D002D001D000D0D0D082D0A6
:101E5B0083D0F0D0E032E4F9FDFCFBFAF582F58398
:101E6B007008AC06AD07AA06AB07D3EF9DEE9C40FE
:101E7B0006AC06AD07800BC3EF9BEE9A5004AA0687
:101E8B00AB07EF2582F582EE3583F58309E9C39421
:101E9B000A4022E4F9E5829DFFE5839CCFC39BCFEB
:101EAB009AFEEF7803CEC313CE13D8F9F5588E579D
:101EBB00E4F583F582221220838E468F47E54A7024
:101ECB001CF548F5490545E54570020544C394B436
:101EDB00E5449400403BE4F544F5458021E5474556
:101EEB00466025E4F544F5450549E549700205488A
:101EFB00C39410E548940E4018E4F548F5491221B7
:101F0B005DE4F546F5478009E4F548F549F544F5F8
:101F1B0045AE46AF47227F64E4FDFC53E4F7F593EF
:101F2B007594EFF595759188759397E59330E00C63
:101F3B00AE071FEE60060075B10280EFAF977C0015
:101F4B00AD07EDC4F8540FC868FDECC454F048FC61
:101F5B00AF96EF2DFDE43CFEAF0522EFB55309EE36
:101F6B00B55205E4F556802CC3EF9553EE955240D0
:101F7B000E53560F0556E556D3940A4017800E5351
:101F8B0056F074102556F556D394A04007E4F55639
:101F9B008E548F558E528F5322C0E0C0F0C083C039
:101FAB0082C0D075D000C000C001C002C003C00405
:101FBB00C005C006C00712116FD007D006D005D0E0
:101FCB0004D003D002D001D000D0D0D082D083D0A7
:101FDB00F0D0E032E4F586C2AFF5B275B10275E12F
:101FEB00FFF5E9F580D281D28275E2FFF5EAF59033
:101FFB00D29275D90575EF0275E39FF5EBF5A075D8
:10200B00E4FFF5ECF5B0D2B4D2AF22E51F6401705A
:10201B0030E51AD394315003051A22751A32E4FBBA
:10202B00FD7F0A122156E4FBFAFDFCFF122134E47A
:10203B00FBFAFDFCFF122107E4F50FFBFDFF12215C
:10204B001F22E54F454E600FE54D454C7009F5508D
:10205B00854E4C854F4D22E54FB54D0FE54EB54C9A
:10206B000AE550C394FE500F055022E54F454E70C4
:10207B0006F550F54CF54D22754A019000ADE0FE8A
:10208B00A3E0FFEE701AEF24FB501424F56010242C
:10209B00F0600C24E0600824C060042478700122F6
:1020AB00E4F54A7EFF7FFF22438901758F04758A11
:1020BB00E3758BF7C28DD28CD2A9D2AF75B80275EE
:1020CB00B402E4F5B9F5B522E4F54EF54FEF30E087
:1020DB0003434F01EF30E103434F02EF30E2034381
:1020EB004F04220543E543C394064009E4F543122C
:1020FB001EC1020EE212000E12000E22E4F530F5A4
:10210B002EF52CF52DF52AF52B8F2F8A288B298C64
:10211B00268D2722E4F535F536F539F537F5388F69
:10212B00328D318B34850F3322E4F53FF5408F3CF4
:10213B008C3A8D3B8A3D8B3E22D292D2B4D281D245
:10214B008222D292D2B4D281D282228F598D5A8BD3
:10215B005B229000AA7401F0220E930E820E700E79
:10216B005D0E4A0E360E220E0D0DF70DE10DCA0D4A
:10217B00B20D9A0D810D670D4D0D320D160CFA0C2B
:10218B00DD0CBF0CA10C820C630C430C220C010B5D
:10219B00DF0BBD0B9A0B770B540B300B0B0AE60ABC
:1021AB00C10A9C0A760A500A2A0A0309DC09B609F5
:1021BB008F09680941091908F208CB08A4087D08A2
:1021CB00560830080907E307BD07970771074C0747
:1021DB0027070206DE06BA069606730650062E067B
:1021EB000C05EB05CA05A90589056A054B052C05E8
:1021FB000E04F104D404B8049C04800465044B045D
:10220B0031041803FF03E703CF03B803A1038A03C9
:10221B0075035F034A03360322030F02FC02E90234
:10222B00D702C502B402A3029302820273026302B5
:10223B0055024602380001060000000000030303AC
:10224B000303030303030303030303030301F40166
:10225B00F401F401F401F401F401F401F401F401CB
:10226B00F401F401F401F401F401F401F403E803C3
:10227B00E803E803E803E803E803E803E803E803FB
:10228B00E803E803E803E803E803E803E83F065B39
:10229B004F666D7D077F6FBF86DBCFE6EDFD87FF5A
:0622AB00EF39F9BE00FF4F
:00000001FF
