:06000000021B8B021E60D2
:10000B00021CA2900025E0FE700690001CE0FF226F
:10001B00EE14FF900003E02FF50C25E024DDF582B4
:10002B00E43420F583E493FC740193FDAE04780271
:10003B00CEC313CE13D8F9FF900019EEF0A3EFF057
:10004B00EDAE047802C333CE33CED8F9FF7C007DFE
:10005B000A121997900000EEF0A3EFF0900000E069
:10006B00FEA3E07803CEC313CE13D8F9FF90001F85
:10007B00EEF0A3EFF0E50C25E024B4F582E43400B8
:10008B00F583E0F50FA3E0F51054079000B0F0E511
:10009B0010AE0F7803CEC313CE13D8F9F5108E0F15
:1000AB0054079000ABF0E5107803CEC313CE13D8F2
:1000BB00F9F5108E0F54019000FFF0E50FC313F507
:1000CB000FE51013F510540FA3F0E50FC4F854F01F
:1000DB00C868F50FE510C4540F48F510540F900085
:1000EB00FDF0900018E07003020B6690001BE070AF
:1000FB0003020B66E50C75F008A42429F582E434A1
:10010B0000F583C083C0829000FAE0D082D0837563
:10011B00F002121A39E0F50FA3E0F5109000B1E0F0
:10012B00607CE50C25E02402F582E43401F583E0E4
:10013B00FEA3E0FFC39510EE950F5025C3E5109F6E
:10014B00FFE50F9EFED390001AE09F900019E09EF2
:10015B00500F900006E004F0E0C39403400302024A
:10016B0007E50C25E02402F582E43401F583E0FE7B
:10017B00A3E0FFD39510EE950F4023EF9510FFEE04
:10018B00950FFED390001AE09F900019E09E500E41
:10019B00900007E004F0E0C394034002805E9000FF
:1001AB00B2E06072E50C25E02402F582E43401F53F
:1001BB0083E0FEA3E0FFD39510EE950F404BEF9538
:1001CB0010FFEE950FFEE50C25E024DDF582E434FF
:1001DB0020F583D37401939FE4939E502C740825D0
:1001EB000CF582E43400F583E004F07408250CF57B
:1001FB0082E43400F583E0C39464401AE490002554
:10020B00F09000AA04F07FFF227408250CF582E41D
:10021B003400F583E4F0E50C25E02402F582E434A8
:10022B0001F583E0FEA3E0FF900000E0FCA3E0FDFE
:10023B00EF2DFFEE3CFEE50C25E024DDF582E434EA
:10024B0020F5837401932FFFE4933EFED3E5109FBB
:10025B00E50F9E40028045E50C25E02402F582E483
:10026B003401F583E0FEA3E0FF900000E0FCA3E087
:10027B00FDC3EF9DFFEE9CFEE50C25E024DDF58232
:10028B00E43420F583E493FC740193FDC3EF9DFFED
:10029B00EE9CFEC3E5109FE50F9E50048E0F8F1052
:1002AB00E50C75F008A42429F582E43400F583C02D
:1002BB0083C0829000FAE0D082D08375F002121ACC
:1002CB0039E50FF0A3E510F0E4F514F513F512F58D
:1002DB0011F50DE50C75F008A42429F582E4340022
:1002EB00F58375F002E50D121A39E0FEA3E0FFE489
:1002FB00FCFDE5142FF514E5133EF513ED3512F562
:10030B0012EC3511F511050DE50DB404C6AF14AEA5
:10031B0013AD12AC117802121A138F148E138D12A7
:10032B008C11900023EEF0A3EFF0E50C25E02422D6
:10033B00F582E43401F583E0FCA3E0FD900019E0C5
:10034B00FAA3E0FBC3ED9BFDEC9ACD24ECCD34FF7F
:10035B00FCC3EF9DEE9C503DE50C25E02422F5827D
:10036B00E43401F583E0FEA3E024F6FFEE34FF90C6
:10037B000023F0A3EFF0900003E0FF900144E0B501
:10038B00070DB40804E4F080069001447408F09063
:10039B0000E77401F0E50C25E02422F582E434013A
:1003AB00F583E0FEA3E0FF2BFDEE3ACD2414CD3414
:1003BB0000FCD3900024E09D900023E09C4029EFAB
:1003CB00240AFFE43EF0A3EFF0900003E0FF90015E
:1003DB0044E0B5070DB40804E4F0800690014474C2
:1003EB0008F09000E77401F09000FAE0F50EE50CD0
:1003FB0075F008A42429F582E43400F58375F00226
:10040B00E50E121A39E0FEA3E0FFE48F148E13F50C
:10041B0012F511150EE50ED394034003750E03E58B
:10042B000C75F008A42429F582E43400F58375F0EB
:10043B0002E50E121A39E0FEA3E0FFE4FCFD7801A1
:10044B00121A268F188E178D168C15150EE50ED3D6
:10045B0094034003750E03E50C75F008A42429F5ED
:10046B0082E43400F58375F002E50E121A39E0FED2
:10047B00A3E0FFE4FCFDE5142FF514E5133EF513A3
:10048B00ED3512F512EC3511F511AF18AE17AD169F
:10049B00AC15AB14AA13A912F8D3121A02401AE521
:1004AB00149518F514E5139517F513E5129516F534
:1004BB0012E5119515F5118019C3E5189514F5146E
:1004CB00E5179513F513E5169512F512E51595112C
:1004DB00F511E50C25E024DDF582E43420F583E409
:1004EB0093FE740193FFE4FCFDAB14AA13A912A8AD
:1004FB0011D3121A02401F900003E0FF900144E059
:10050B00B5070DB40804E4F080069001447408F0BC
:10051B009000E77401F0900001E024F6FF900000DA
:10052B00E034FFFE90001FE0FCA3E0FDC3EF9DFF56
:10053B00EE9CFEEF7803CEC313CE13D8F9FFE50C78
:10054B0025E02422F582E43401F583E0FCA3E02FBF
:10055B00FFEC3EFE900023E0FCA3E0FDC39FEC9E6E
:10056B00500A9000B0E0601A14F080169000B0E0D2
:10057B0004F0900005E004FF9000B0E0D39F400230
:10058B00EFF0E50C25E02402F582E43401F583E07D
:10059B00FEA3E0FFD3ED9FEC9E5003020843E490D3
:1005AB000100F0900023E0FCA3E0FD9FF510EC9E12
:1005BB00F50FC3900001E09510900000E0950F40FF
:1005CB00030206FCE49000FDF0900004E0C39418D5
:1005DB0040030206F4A3E0F99000ABE0C39940039B
:1005EB000206EC9000FBE064017043E50C25E0246F
:1005FB0022F582E43401F583E0FEA3E0FF240AFB3D
:10060B00E43EFAD3ED9BEC9A401D900019E0FCA35D
:10061B00E0FDEF2DFFEE3CFEC3900024E09F900029
:10062B0023E09E50028007E49000ABF08006900020
:10063B00ABE004F0E914FF9000ABE0D39F50030252
:10064B0006DC9000B0E0940240030206DA9000ABA7
:10065B00EFF0E4900004F074D6250CF582E434003E
:10066B00F583E0C394804059E50C25E02422F58204
:10067B00E43401F583E0FEA3E0FF24F6FDEE34FF46
:10068B00FC900023E0FAA3E0FBD39DEA9C4042EFF1
:10069B00240AFFE43EFEC3EB9FEA9E503490001FFA
:1006AB00E0FEA3E0FFC3EB9FFFEA9EFEE50C25E017
:1006BB002402F582E43401F583EEF0A3EFF0020A95
:1006CB004F74D6250CF582E43400F583020835808F
:1006DB000074D6250CF582E43400F583E4F0020AAD
:1006EB004F9000ABE9F0020A4FE49000ABF0020A26
:1006FB004FE49000ABF074D6250CF582E43400F592
:10070B0083E004F0E50C25E02422F582E43401F5C6
:10071B0083E0FEA3E0FF240CFDE43EFCD390002419
:10072B00E09D900023E09C4005E49000FDF074D622
:10073B00250CF582E43400F583E0C39420500302CA
:10074B000A4F900004E0F97048EF24F6FFEE34FFF7
:10075B00FE900023E0FCA3E0FDD39FEC9E4032E52E
:10076B000C25E02422F582E43401F583E0FEA3E0BE
:10077B00240AFFE43EFEC3ED9FEC9E5014E50C25CE
:10078B00E02402F582E43401F583E475F0011219DB
:10079B00EC74D6250CF582E43400F583E4F090007C
:1007AB0000E0FEA3E07802CEC313CE13D8F9FFD33B
:1007BB00E5109FE50F9E4078900005E02401FFE4D3
:1007CB0033FE9000FDE06F7001EE705BE97061E548
:1007DB000C25E02422F582E43401F583E0FEA3E04E
:1007EB00FF24F6FDEE34FFFC900023E0FAA3E0FBC0
:1007FB00D39DEA9C403AEF240AFFE43EFEC3EB9FF5
:10080B00EA9E502C90001FE0FEA3E0FFC3EB9FFF7E
:10081B00EA9EFEE50C25E02402F582E43401F58323
:10082B00EEF0A3EFF080099000FDE004F0020A4F18
:10083B00E49000FDF0020A4FE49000ABF09000FD55
:10084B00F0E50C25E02402F582E43401F583E0FEAB
:10085B00A3E0FF900000E0FCA3E0FDC3EF9DFFEEE3
:10086B009CFE900023E0FCA3E0FDC39FEC9E4003A5
:10087B000209B0900005E02401FFE433FE90010073
:10088B00E0C39FEE6480F87480984003020963E52F
:10089B000C25E02422F582E43401F583E0FEA3E08D
:1008AB0024F6FFEE34FFFEC3ED9FEC9E503CE50CAF
:1008BB0025E02422F582E43401F583E0FEA3E0FF7A
:1008CB00900019E0FCA3E0FDC3EF9DFFEE9CCF244D
:1008DB00ECCF34FFFED3900024E09F900023E09EEA
:1008EB004008900100E004F08077E4900100F09064
:1008FB000004E0706CE50C25E02422F582E4340161
:10090B00F583E0FEA3E0FF24F6FDEE34FFFC900040
:10091B0023E0FAA3E0FBD39DEA9C4045EF240AFFBA
:10092B00E43EFEC3EB9FEA9E5037E50C25E0240224
:10093B00F582E43401F583C083C082E0FEA3E0FFBF
:10094B0090001FE0FCA3E0FDC3EF9DFFEE9CD08267
:10095B00D083F0A3EFF08009900005E00490010034
:10096B00F0900005E0FF900100E0D39F5003020AD6
:10097B004F900004E0702690001FE0FEA3E0FF9074
:10098B000024E09FFF900023E09EFEE50C25E02471
:10099B0002F582E43401F583EEF0A3EFF0E490016D
:1009AB0000F0020A4FE4900100F074D6250CF5829A
:1009BB00E43400F583E004F074D6250CF582E434BE
:1009CB0000F583E0FF64016006EFC394204075904F
:1009DB000004E07061E50C25E02422F582E434018B
:1009EB00F583E0FEA3E0FF24F6FDEE34FFFC900060
:1009FB0023E0FAA3E0FBD39DEA9C403AEF240AFFE5
:100A0B00E43EFEC3EB9FEA9E502CE50C25E024024E
:100A1B00F582E43401F583C083C082E0FEA3E0FFDE
:100A2B0090001FE0FCA3E0FDC3EF9DFFEE9CD08286
:100A3B00D083F0A3EFF074D6250CF582E43400F5E7
:100A4B00837401F0900023E0FEA3E0FFE50C25E0AA
:100A5B002422F582E43401F583EEF0A3EFF090004D
:100A6B0005E014FF9000ABE0FED39F40089000FF21
:100A7B007401F08007EE70049000FFF09000B3E07B
:100A8B007003020B66E50C25E024FDF582E43420AF
:100A9B00F583E493FE740193FFE50C25E02402F546
:100AAB0082E43401F583E0FCA3E02FFFEC3EFEE58E
:100ABB000C25E02446F582E43401F583E0FCA3E049
:100ACB00D39FEC9E5003020B5974E8250CF582E47E
:100ADB003400F583E0C394FF500E74E8250CF582C7
:100AEB00E43400F583E004F0E50CC39408501F7464
:100AFB00017E00A80C088005C333CE33CED8F9FF96
:100B0B00900026E05EFEA3E05F4E60378022E50C8E
:100B1B0024F8FF74017E00A807088005C333CE3389
:100B2B00CED8F9FF900026E05EFEA3E05F4E601387
:100B3B00E49000ABF09000FFF09000B0F090000458
:100B4B007430F074D6250CF582E43400800974E817
:100B5B00250CF582E43400F583E4F09000FDE0759C
:100B6B000F00F510E510C4F8540FC868F510E50F29
:100B7B00C454F048F50F900100E02510F510E43552
:100B8B000FF50FE51025E0F510E50F33F50F90008D
:100B9B00FFE02510F510E4350FF50FE510AE0F78DB
:100BAB0003C333CE33CED8F9F5108E0F9000ABE0E4
:100BBB002510F510E4350FF50FE510AE0F7803C3D4
:100BCB0033CE33CED8F9F5108E0F9000B0E0251050
:100BDB00F510E4350FF50FE50C25E024B4F582E4B0
:100BEB003400F583E50FF0A3E510F0900025E01439
:100BFB00F0E06003020ED7900018E0600990001B34
:100C0B00E06003020D86900003E064086003020CB1
:100C1B00D19000E6E004F0E0C394085003020E8F7D
:100C2B009000187401F0E49000E6F0F50E90001DB2
:100C3B00E0FFE50EC39F4003020E8F900003E025FB
:100C4B000EF50CE4F514F513F512F511F50DE50C95
:100C5B0075F008A42429F582E43400F58375F002BD
:100C6B00E50D121A39E0FEA3E0FFE4FCFDE5142FBD
:100C7B00F514E5133EF513ED3512F512EC3511F5C0
:100C8B0011050DE50DB404C6AF14AE13AD12AC11C6
:100C9B007802121A138F148E138D128C11E50C25FA
:100CAB00E02402F582E43401F583EEF0A3EFF0E5E6
:100CBB000C25E02422F582E43401F583EEF0A3EF5A
:100CCB00F0050E020C389000F8E004F0E0C3940835
:100CDB005003020E8F90001B7401F0E49000F8F0AB
:100CEB00F50E90001DE0FFE50EC39F4003020E8F33
:100CFB00900003E0250EF50CE4F514F513F512F551
:100D0B0011F50DE50C75F008A42429F582E43400E7
:100D1B00F58375F002E50D121A39E0FEA3E0FFE44E
:100D2B00FCFDE5142FF514E5133EF513ED3512F527
:100D3B0012EC3511F511050DE50DB404C6AF14AE6B
:100D4B0013AD12AC117802121A138F148E138D126D
:100D5B008C11E50C25E02402F582E43401F583EED9
:100D6B00F0A3EFF0E50C25E02422F582E43401F545
:100D7B0083EEF0A3EFF0050E020CED900003E0FF05
:100D8B00900144E06F704B9000ADF0A3F0F50EF5C1
:100D9B000F75100190001DE0FFE50EC39F503390BF
:100DAB000003E0250EF50C25E024B4F582E43400B5
:100DBB00F583A3E030E60C9000ADE0450FF0A3E027
:100DCB004510F0050EE5102510F510E50F33F50F66
:100DDB0080C29000B3E07003020E8FE4900021F00C
:100DEB00F50EF50F75100190001DE0FFE50EC39F8A
:100DFB004003020E7D74E8250EF582E43400F58382
:100E0B00E0FF900005E0FEEFC39E402474F0250E3A
:100E1B00F582E43400F583E0C39E40149000217406
:100E2B0001F0900026E0450FF0A3E04510F0803272
:100E3B00900026E0FEA3E0FFE50F5EFCE5105F4CA3
:100E4B006020E510F4FDE50FF4FCEE5CFEEF5DFFBA
:100E5B00900026EEF0A3EFF09000ADE05CF0A3E085
:100E6B005DF0050EE5102510F510E50F33F50F02BB
:100E7B000DF2900026E0FEA3E0FF9000ADE04EF0F7
:100E8B00A3E04FF09000FAE004F0E0D394034002AB
:100E9B00E4F0900004E0600214F09000E7E06006DC
:100EAB009000047430F0900003E09000FAB4080F47
:100EBB00E09000D4F0900004E0900143F0800DE04E
:100ECB009000D5F0900004E0900145F090001CE0FC
:100EDB00F50CE4F0AF0C2253A8FEE4F59DF5C2F53A
:100EEB00C3F5C4F5C5F5C6F5CFF5B6F5CEF5A1F549
:100EFB00C1900025E060069001427403F0E490007D
:100F0B0025F09000AAE0600812170DE49000AAF0FB
:100F1B009000F9E064036003020FF89000FCE0FF1F
:100F2B00900003F0BF080D9000D4E09000FAF09011
:100F3B000143800B9000D5E09000FAF0900145E062
:100F4B00900004F0900004E0D3940040089000FB64
:100F5B007401F08005E49000FBF0E49000E7F0F5FD
:100F6B000D90001DE0FFE50DC39F5070900003E056
:100F7B00250DF50C7D007C05E50D9020C593FF7EBE
:100F8B00002DFDEE3CFCEF2DFDEE3CFC8D82F58340
:100F9B00A3E0FE8D828C83E07C002400FDEC3EFC04
:100FAB00E50C25E02446F582E43401F583ECF0A34F
:100FBB00EDF0E50C75F008A42429F582E43400F576
:100FCB0083C083C0829000FAE0D082D08375F00298
:100FDB00121A39ECF0A3EDF0050D808590001DE0A1
:100FEB00900025F0E4900006F0A3F0800D9000F93E
:100FFB00E0B401069001427402F0900166E09000AB
:10100B0028F09000AFF0900022E0FF70179001667F
:10101B00E004F090001DE0FE900166E0C39E4011DD
:10102B00E4F0800D900166E004F0E0C39F4002E421
:10103B00F0900028E090001EF09020C593B40800BB
:10104B00505D901054F828287302106C0210740233
:10105B00107C02108402108C02109402109C02105F
:10106B00A4439D0143C2018036439D0243C20280CB
:10107B002E439D0443C2048026439D0843C208802F
:10108B001E439D1043C2108016439D2043C22080F7
:10109B000E439D4043C2408006439D8043C28090D7
:1010AB000028E004F0900022E0FF701190001DE09A
:1010BB00FE900028E0C39E402CE4F080289000288E
:1010CB00E0FED39F500D900022E0FFEEC39F401532
:1010DB00E4800E90001DE0FFEEC39F4008900022BD
:1010EB00E0900028F053B67F53A1FC43A10853A115
:1010FB00EF9000FCE0B4081AE4F0900101E0F5CFAA
:10110B0090001EE09020D593F5C6E4F5C59000AC99
:10111B00801C9000FC7408F09000FEE0F5CF90006E
:10112B001EE09020CD93F5C6E4F5C59000A9E0F53F
:10113B00CE53A1FB53B6DF43A180E4F50C00050CA5
:10114B00E50CB432F89000F97401F043A801E4F512
:10115B00C143A120900142E0600490001CF0E49098
:10116B000142F022121E9B121F381216107B2C7A92
:10117B00017DE87C037F01121F8C7BFF7A007D7F52
:10118B007C007F02121FB97B177D177F1702133C60
:10119B0075B102E520C3940F40F6E4F520051DE57B
:1011AB001D940A4003E4F51D121F73E51D24FE6018
:1011BB002414602D14604A1470030212622404700C
:1011CB00CFE4F593F591AB28AA27AD26AC25AF2E2E
:1011DB00121C1780BBAF46AE45121F58121ED28091
:1011EB00AFE52D640160A9121DDD8E568F57121DC0
:1011FB001DAF57AE56121A458E538F54121E2280B6
:10120B008F051AE51A70020519D39431E51994006C
:10121B00500302119BE51F6401600302119B7519BA
:10122B001F751A40FBFD7F0A121FDBE4FBFAFDFC66
:10123B00FF121FB9E4FBFAFDFCFF121F8CE4F50F44
:10124B00FBFDFF121FA4E54E6401454D6003021127
:10125B009B751F0202119B051CE51C7002051BC32D
:10126B0094C7E51B94005035E54E6403454D703330
:10127B00751F02E54F644E702A7B64FA7D64FC7F18
:10128B0002121F8C750F0AE4FB7D067F04121FA44C
:10129B00E4FBFD7F0A121FDB7521018006751B0025
:1012AB00751CC8E521700302119B0523E523700211
:1012BB000522D39431E5229400500302119BE4F5EF
:1012CB0022F523051EE51E940B5038E51E75F0061E
:1012DB00A42467F582E43401F583A3E0FFE51E75D2
:1012EB00F006A42469F582E43401F583A3E0FDE55F
:1012FB001E75F006A4246BF582E43401F583A3E09C
:10130B00FB802EE51E640B702EAE53AF54FC7D0A92
:10131B001219977C007D0A121997AF05C007AE53BF
:10132B00AF547C007D0A121997ED240AFDD0077B80
:10133B0014121FDB02119BE4F51E751F01F5210230
:10134B00119BC0A7C086E4F586F5A753A8FEAFC1D5
:10135B00AEB7F59DF5C253A8FE9000F9E0640160AD
:10136B00030214D9EF20E4030214CEEE600302143F
:10137B00CE9000AFE0FF900028E0FE6F703C900035
:10138B0022E0FF70028005EEC39F40089000F974C5
:10139B0003F08026900002E0900028F09000AFF060
:1013AB0090000204F090001DE0FF900002E0C39F4C
:1013BB004008900022E0900002F09000F9E06403F6
:1013CB0070030214D9900028E090001EF09020C505
:1013DB0093B40800505D9013E8F8282873021400AA
:1013EB00021408021410021418021420021428020A
:1013FB001430021438439D0143C2018036439D02D1
:10140B0043C202802E439D0443C2048026439D08A1
:10141B0043C208801E439D1043C2108016439D207B
:10142B0043C220800E439D4043C2408006439D80B3
:10143B0043C280900028E004F0900022E0FF70117E
:10144B0090001DE0FE900028E0C39E402CE4F0804D
:10145B0028900028E0FED39F500D900022E0FFEE75
:10146B00C39F4015E4800E90001DE0FFEEC39F402C
:10147B0008900022E0900028F09000FCE0B40818DF
:10148B009000FEE0F5CF90001EE09020CD93F5C6C6
:10149B00E4F5C59000A98016900101E0F5CF90000E
:1014AB001EE09020D593F5C6E4F5C59000ACE0F5B1
:1014BB00CEE4FF000FBF32FB43A801E4F5C143A10B
:1014CB0020800B9001427401F0E49000F9F0D0867B
:1014DB00D0A722121FC9055BE55BC394044003E44C
:1014EB00F55BE55B6401705BEF90211D93FEC330F0
:1014FB00E001D39280EEC330E101D392A4EF9021AF
:10150B001D93FEC330E201D392A1EEC330E301D3AE
:10151B009290EF90211D93FEC330E401D39283EEA2
:10152B00C330E501D392A3EF90211D93FEC330E6A8
:10153B0001D392A2EEC330E701D39291C2B4D28110
:10154B00D28222E55B6402705BED90211D93FFC399
:10155B0030E001D39280EFC330E101D392A4ED9040
:10156B00211D93FFC330E201D392A1EFC330E301FE
:10157B00D39290ED90211D93FFC330E401D392835E
:10158B00EFC330E501D392A3ED90211D93FFC33040
:10159B00E601D392A2EFC330E701D39291D2B4C24A
:1015AB0081D28222E55B6403705AEB90211D93FF7D
:1015BB00C330E001D39280EFC330E101D392A4EBAF
:1015CB0090211D93FFC330E201D392A1EFC330E30F
:1015DB0001D39290EB90211D93FFC330E401D39282
:1015EB0083EFC330E501D392A3EB90211D93FFC38F
:1015FB0030E601D392A2EFC330E701D39291D2B47C
:10160B00D281C2822290001D7403F0E4900022F07C
:10161B009000057402F09000FE7407F0E5CE543F85
:10162B004440F5CE9000A9F0E5CE54CF4430F5CE32
:10163B0053CEF3E5CE54FC4403F5CE900101740E6A
:10164B00F0E5CE543F44C0F5CE9000ACF0E5CE545F
:10165B00CF4430F5CE53CEF3E5CE54FC4403F5CE58
:10166B00E49000B1F09000B204F09000B3F0E4F518
:10167B00B200000000FF90001DE0FEEFC39E506221
:10168B00EF9020C593B40800505590169CF828286D
:10169B00730216B40216BB0216C20216C90216D08A
:1016AB000216D70216DE0216E5C29743E280802FA0
:1016BB00C2A043E3018028C2A143E3028021C2A25E
:1016CB0043E304801AC2A343E3088013C2A443E399
:1016DB0010800CC2A543E3208005C2A643E3400F54
:1016EB008094C2A743E38053908743E27853B0DFE3
:1016FB0043E4204386405390F043910F5386BF023F
:10170B001FE2E49000ADF0A3F0900026F0A3F09060
:10171B0000F9F0900025F0900018F090001BF0906D
:10172B0000E6F09000F8F09000D4F0900143F090B8
:10173B0000D5F0900145F09000FAF0900004F09085
:10174B0000E7F09000FBF0A37408F0900003F0901A
:10175B000144F0E4FF90001DE0FEEFC39E5072AE1B
:10176B0007EF2408FDE433FCEED39DEC6480F874A2
:10177B008098505AEE25E02402F582E43401F5837B
:10178B00E4F0A3F0EE25E02422F582E43401F583A6
:10179B00E4F0A3F0EE25E024B4F582E43400F58305
:1017AB00E4F0A3F074D62EF582E43400F583E4F074
:1017BB0074082EF582E43400F583E4F074E82EF51A
:1017CB0082E43400F583E4F074082EFE80930F80DE
:1017DB0084E4900142F090001CF0900166F09000C0
:1017EB0022E0900002F022012400012100012000E0
:1017FB00011D00011F0102190000021B00006042C5
:10180B000167000A00000000000B00010001000C42
:10181B0000020002000D00030003000E0004000490
:10182B00000F000500050010000600060011000760
:10183B00000700120008000800130009000900153A
:10184B0000000000011E0002220000012D000229F1
:10185B000000022B0000012F00012E0002250000CA
:10186B0002270000015B00015800015900015A00DA
:10187B00015000024D0000014F00014A00024B00D5
:10188B0000025600000155000253000002510000F7
:10189B000234000001380002360000013100013033
:1018AB0000013300013200023E0000024000000143
:1018BB003B0002390000023C000000A907121FD2B6
:1018CB00EDC330E001D392A3EDC330E101D392A27B
:1018DB00EDC330E201D39291EDC330E301D392809B
:1018EB00EDC330E401D392A1EDC330E501D3929067
:1018FB00E97003D29222E9640170580541E5417009
:10190B00020540EBAE027803C333CE33CED8F924B5
:10191B00FFFFEE34FFFEC3E5419FE5409E503205CD
:10192B003FE53F7002053EC3943FE53E941F4005E3
:10193B00E4F53EF53FC3E53F949FE53E940F50031E
:10194B00C29222C3E53F949FE53E940F403DD29255
:10195B00228032B902350541E54170020540EBF4B6
:10196B004A7003C29222EBAE027803C333CE33CE5E
:10197B00D8F924FFFFEE34FFFEC3E5419FE5409EFF
:10198B005003C292228E408F41D29222BC000BBEDA
:10199B000029EF8DF084FFADF022E4CCF875F00850
:1019AB00EF2FFFEE33FEEC33FCEE9DEC984005FC85
:1019BB00EE9DFE0FD5F0E9E4CEFD22EDF8F5F0EE4D
:1019CB008420D21CFEADF075F008EF2FFFED33FD38
:1019DB004007985006D5F0F222C398FD0FD5F0EAD8
:1019EB0022C5F0F8A3E028F0C5F0F8E58215827067
:1019FB00021583E038F022EB9FF5F0EA9E42F0E906
:101A0B009D42F0E89C45F022E8600FECC313FCED1F
:101A1B0013FDEE13FEEF13FFD8F122E8600FEFC3B7
:101A2B0033FFEE33FEED33FDEC33FCD8F122A4256E
:101A3B0082F582E5F03583F583228E0C8F0DE4FF62
:101A4B00FE901FE993F50E740193F50FD390205779
:101A5B00740193950DE493950C40047B378002E45D
:101A6B00FBD3E50D950FE50C950E5018EB25E024F7
:101A7B00E9F582E4341FF583E493F50E740193F5D5
:101A8B000F0B80DDEBD3946540067E007F648049AD
:101A9B00EB7004FEFF8042EB25E024E7F582E43493
:101AAB001FF583E493FE740193FFEB25E024E5F52A
:101ABB0082E4341FF583C37401939FFDE4939EFC72
:101ACB00C3E50D9FFFE50C9EFE121997EB24FFFD5E
:101ADB00E434FFCD2FFFED3EFED3EF9464EE940084
:101AEB0040047E007F6422AC07A903EC2DFDE50BBF
:101AFB0075F002A4FFAEF0C3E5389FEE6480F87476
:101B0B0080984004E4F53822C3E5389FEE6480F8F2
:101B1B00748098506A0535E53570020534ED75F023
:101B2B0008A424FFFFE5F034FFFEC3E5359FE53441
:101B3B009E4007E4F534F5350538EC75F008A42420
:101B4B00FFFFE5F034FFFEC3E5359FE5349E5017EC
:101B5B00E925E0FFE50B25E0C39FFFE538C39F5068
:101B6B0003D2B622C2B622ED75F008A424FFFFE51E
:101B7B00F034FFFEC3E5359FE5349E5002C2B6221A
:101B8B00787FE4F6D8FD75815B021BD202116FE4FE
:101B9B0093A3F8E493A34003F68001F208DFF480EB
:101BAB0029E493A3F85407240CC8C333C4540F443B
:101BBB0020C8834004F456800146F6DFE4800B0115
:101BCB00020408102040809017F2E47E019360BC61
:101BDB00A3FF543F30E509541FFEE493A360010EAD
:101BEB00CF54C025E060A840B8E493A3FAE493A3D4
:101BFB00F8E493A3C8C582C8CAC583CAF0A3C8C5F5
:101C0B0082C8CAC583CADFE9DEE780BE8F0C8D822E
:101C1B008C83E52D7009E52FC3950C50028070E580
:101C2B002D6401703343E408052CE52C7002052B61
:101C3B00AE02AF037C007D14121997EF24FFFFEE69
:101C4B0034FFFEC3E52C9FE52B9E404AE4F52BF5B4
:101C5B002C752D0253E4F722E52D64027038052A0A
:101C6B00E52A70020529AE83AF827C007D14121920
:101C7B0097EF24FFFFEE34FFFEC3E52A9FE5299E75
:101C8B004014E4F529F52A052FE52F950C50047522
:101C9B002D0122E4F52D22C0E0C0F0C083C082C02C
:101CAB00D075D000C000C001C002C003C004C00585
:101CBB00C006C007758AE3758BF7C28D0520E52D2D
:101CCB00B40102B2B385320BAB33AD30AF31121A64
:101CDB00F2E5247F0070027F018F24E524700FABA7
:101CEB003DAA3CAD3AAC39AF3B1218C68009AB5A92
:101CFB00AD59AF581214DED007D006D005D004D0A2
:101D0B0003D002D001D000D0D0D082D083D0F0D07D
:101D1B00E032E4F9FDFCFBFAF582F5837008AC06C2
:101D2B00AD07AA06AB07D3EF9DEE9C4006AC06AD04
:101D3B0007800BC3EF9BEE9A5004AA06AB07EF2567
:101D4B0082F582EE3583F58309E9C3940A4022E4D8
:101D5B00F9E5829DFFE5839CCFC39BCF9AFEEF787D
:101D6B0003CEC313CE13D8F9F5578E56E4F583F58E
:101D7B008222121F088E458F46E549701CF547F5E8
:101D8B00480544E54470020543C394B4E54394000D
:101D9B00403BE4F543F5448021E54645456025E4A9
:101DAB00F543F5440548E54870020547C39410E533
:101DBB0047940E4018E4F547F548121FE2E4F54549
:101DCB00F5468009E4F547F548F543F544AE45AFD4
:101DDB0046227F64E4FDFC53E4F7F5937594EFF52D
:101DEB0095759188759397E59330E00CAE071FEED0
:101DFB0060060075B10280EFAF977C00AD07EDC4B4
:101E0B00F8540FC868FDECC454F048FCAF96EF2DA6
:101E1B00FDE43CFEAF0522EFB55209EEB55105E4EA
:101E2B00F555802CC3EF9552EE9551400E53550F3F
:101E3B000555E555D3940A4017800E5355F0741091
:101E4B002555F555D394A04007E4F5558E538F5483
:101E5B008E518F5222C0E0C0F0C083C082C0D075BB
:101E6B00D000C000C001C002C003C004C005C00642
:101E7B00C00712134DD007D006D005D004D003D025
:101E8B0002D001D000D0D0D082D083D0F0D0E032BD
:101E9B00E4F586C2AFF5B275B10275E1FFF5E9F570
:101EAB0080D281D28275E2FFF5EAF590D29275D994
:101EBB000575EF0275E39FF5EBF5A075E4FFF5EC07
:101ECB00F5B0D2B4D2AF22E54E454D600FE54C458F
:101EDB004B7009F54F854D4B854E4C22E54EB54C5D
:101EEB000FE54DB54B0AE54FC394FE500F054F223E
:101EFB00E54E454D7006F54FF54BF54C22754901F6
:101F0B009000ADE0FEA3E0FFEE701AEF24FB50143F
:101F1B0024F5601024F0600C24E0600824C06004F9
:101F2B002478700122E4F5497EFF7FFF224389016B
:101F3B00758F04758AE3758BF7C28DD28CD2A9D2BB
:101F4B00AF75B80275B402E4F5B9F5B522E4F54DF9
:101F5B00F54EEF30E003434E01EF30E103434E0209
:101F6B00EF30E203434E04220542E542C3940640A0
:101F7B0009E4F542121D7D020EE212000E12000E54
:101F8B0022E4F52FF52DF52BF52CF529F52A8F2EBF
:101F9B008A278B288C258D2622E4F534F535F538E8
:101FAB00F536F5378F318D308B33850F3222E4F5D3
:101FBB003EF53F8F3B8C398D3A8A3C8B3D22D2923A
:101FCB00D2B4D281D28222D292D2B4D281D2822204
:101FDB008F588D598B5A229000AA7401F0220E93C0
:101FEB000E820E700E5D0E4A0E360E220E0D0DF782
:101FFB000DE10DCA0DB20D9A0D810D670D4D0D3210
:10200B000D160CFA0CDD0CBF0CA10C820C630C43EF
:10201B000C220C010BDF0BBD0B9A0B770B540B3007
:10202B000B0B0AE60AC10A9C0A760A500A2A0A0313
:10203B0009DC09B6098F09680941091908F208CBAF
:10204B0008A4087D08560830080907E307BD079761
:10205B000771074C0727070206DE06BA06960673BA
:10206B000650062E060C05EB05CA05A90589056A5F
:10207B00054B052C050E04F104D404B8049C048014
:10208B000465044B0431041803FF03E703CF03B8C3
:10209B0003A1038A0375035F034A03360322030F6D
:1020AB0002FC02E902D702C502B402A30293028228
:1020BB00027302630255024602380001060000005B
:1020CB0000000303030303030303030303030303DB
:1020DB00030301F401F401F401F401F401F401F43C
:1020EB0001F401F401F401F401F401F401F401F43D
:1020FB0001F403E803E803E803E803E803E803E873
:10210B0003E803E803E803E803E803E803E803E86C
:10211B0003E83F065B4F666D7D077F6FBF86DBCFA6
:0A212B00E6EDFD87FFEF39BE00FF6F
:00000001FF
